:020000040800F2
:10000000380F00200D0200081D140008750D0008AF
:10001000191400080F0300089F29000800000000C1
:10002000000000000000000000000000611E000849
:100030008907000800000000771800088D1F0008DD
:1000400027020008270200082702000827020008EC
:100050002702000827020008270200088D07000871
:100060002702000827020008D50700082702000819
:1000700027020008270200082702000827020008BC
:1000800027020008270200082702000827020008AC
:100090002702000827020008270200081D080008A0
:1000A000270200082702000827020008270200088C
:1000B0002702000885200008270200082702000800
:1000C000270200082702000827020008270200086C
:1000D00027020008C9240008FD2500086127000840
:1000E000270200082702000827020008270200084C
:1000F000270200082702000827020008270200083C
:10010000270200082702000827020008270200082B
:10011000270200082702000827020008270200081B
:10012000270200082702000827020008270200080B
:1001300000F002F800F05AF80AA090E8000C82449F
:100140008344AAF10107DA4501D100F04FF8AFF27C
:10015000090EBAE80F0013F0010F18BFFB1A43F0A5
:100160000103184750440000704400000A444FF057
:10017000000C10F8013B13F0070408BF10F8014B06
:100180001D1108BF10F8015B641E05D010F8016B4B
:10019000641E01F8016BF9D113F0080F1EBF10F8AF
:1001A000014BAD1C0C1B09D16D1E58BF01F801CBD2
:1001B000FAD505E014F8016B01F8016B6D1EF9D555
:1001C0009142D6D37047000000230024002500266A
:1001D000103A28BF78C1FBD8520728BF30C148BFAA
:1001E0000B6070471FB51FBD10B510BD00F033F890
:1001F0001146FFF7F7FF02F077FD00F051F803B466
:10020000FFF7F2FF03BC02F077FC000009488047CB
:1002100009480047FEE7FEE7FEE7FEE7FEE7FEE7E8
:10022000FEE7FEE7FEE7FEE704480549054A064B00
:1002300070470000911F00083101000838090020B4
:10024000380F0020380B0020380B00207047704713
:10025000704770477047754600F028F8AE460500B5
:100260006946534620F00700854618B020B5FFF7D1
:10027000DBFFBDE820404FF000064FF000074FF0D5
:1002800000084FF0000B21F00701AC46ACE8C009B4
:10029000ACE8C009ACE8C009ACE8C0098D467047BD
:1002A0000446AFF300802046FFF7A9FF00487047DF
:1002B000D40800202DE9F04104460D4616461F469D
:1002C0002A2000F043FFC4F3072000F033FFE0B220
:1002D00000F030FFC6F3072000F02CFFF0B200F072
:1002E00029FF2B2000F032FFC5F3072000F022FF8A
:1002F000E8B200F01FFFC7F3072000F01BFFF8B2C1
:1003000000F018FF2C2000F021FFBDE8F08100BFB5
:10031000FEE70000002000BF03E00021044A115462
:10032000401CB0F5487FF8D30021024A1180704785
:100330009C01002074000020002000BF03E0002189
:10034000044A1154401CFA28F9D30021024A1180B2
:1003500070470000BC040020760000202DE9F04129
:100360000746884615460421052000F02DF8002197
:10037000012002F0A9FB80210A2001F072FD002477
:1003800005E0395D092002F09FFB601CC4B24445C2
:10039000F7DB0321012002F097FBFF2400BF0520BB
:1003A00001F048FC0646601EC4B21CB106F0040011
:1003B0000028F4D0222001F03DFC2870212001F01B
:1003C00039FC6870BDE8F08170B505460C462846DA
:1003D00001F030FC064626EA0401284602F074FBD0
:1003E00070BD000010B577480078002866D076A26E
:1003F0002821012000F000FE73A23A21012000F024
:10040000FBFD77A002F0ACF879A002F051F87BA2D6
:100410002821012000F0F0FD4FF47A7002F0D0FBAB
:100420004FF47A7002F0CCFB4FF47A7002F0C8FB04
:100430004FF47A7002F0C4FB4FF47A7002F0C0FB04
:100440004FF47A7002F0BCFBFFF764FF00207049A4
:10045000087070A002F084F873A002F029F85AA284
:100460002821012000F0C8FD57A23A21012000F008
:10047000C3FD71A22821012000F0BEFD02F056FE4E
:1004800071480078002819D000204E4908700120DA
:100490006E4908704CA2282100F0AEFD4AA23A2114
:1004A000012000F0A9FD6AA22821012000F0A4FD8E
:1004B0006CA002F055F800206E490870634800787F
:1004C000002841D040A23A21012000F095FD3EA233
:1004D0004C21012000F090FD67A23A21012000F09C
:1004E0008BFD69A002F03CF86CA001F0E1FF02F086
:1004F00035FE1E2002F064FB53480078A8B170A0BE
:1005000002F02EF80020514908702FA24C21012042
:1005100000F072FD6EA23A21012000F06DFD012075
:100520007149087000205349087052480078401CF7
:100530005049087008460078212805DD00206A49E6
:10054000087001201F49087067480078002838D0DB
:1005500066A002F005F86AA001F0AAFF02F0E6FD2D
:1005600019A24C21012000F047FD69A24C21012075
:1005700000F042FD6AA001F0F3FF6DA001F098FFCA
:1005800002F0D4FD3048007860B10020394908708D
:100590005549087071A24C21012000F02DFD75A075
:1005A00001F0DEFF33480078401C324908700846ED
:1005B0000078032805DD01202449087000204A49FD
:1005C000087010BDC0000020202020202020202006
:1005D000202020202020202020202020000000009B
:1005E000D6D8C6F4C4A3BFE92E2E2E0D0A000000F3
:1005F00041542B5253540D0A00000000526573659C
:10060000742077696669206D6F64652E2E2E000058
:1006100084000020C9E8D6C3B9A4D7F7C4A3CABDD3
:100620002E2E2E0D0A00000041542B43574D4F44EF
:10063000453D330D0A000000736574696E67206DD7
:100640006F64652E2E2E2E0070000020C100002049
:10065000736574206D6F6465207375636365737370
:1006600000000000C9E8D6C3C4A3CABDB3C9B9A677
:100670000D0A0000C3000020436F6E6E6563742096
:10068000574946492E2E2E00C1ACBDD3D2D1D6AA91
:10069000576946692E2E2E0D0A00000041542B4347
:1006A000574A41503D22574946495F313030222C4C
:1006B000223132333435363738220D0A000000003B
:1006C000C1ACBDD377696669B3C9B9A60D0A00008C
:1006D000436F6E6E65637420576946692073756356
:1006E0006365737300000000C2000020C6F4B6AF5B
:1006F000B6E0C4A3BFE9C1ACBDD32E2E2E0D0A00B7
:1007000041542B4349504D55583D310D0A000000CE
:10071000436F6E6E65637420536572762E2E2E00C5
:10072000C1ACBDD3B7FECEF1C6F72E2E2E0D0A00FA
:1007300041542B43495053544152543D342C22547C
:100740004350222C223139322E3136382E312E327E
:100750003030222C363030310D0A0000436F6E6E7F
:100760006563742053657276207375636365737374
:1007700000000000C1ACBDD3B7FECEF1C6F7B3C9CF
:10078000B9A60D0A000000007047000010B5142043
:1007900002F016FA02210C4800F0CEFA38B94FF4F4
:1007A00000710A4800F0D1FA0120094908700220BE
:1007B00000F0E4F8022002F003FA4FF4007103485D
:1007C00000F0C5FA10BD000000080140000C014017
:1007D000A200002010B5142002F0F2F910210C48FC
:1007E00000F0AAFA38B94FF400710A4800F0ADFAE7
:1007F000052009490870102000F0C0F8022002F01E
:10080000DFF94FF40071034800F0A1FA10BD0000B9
:1008100000080140000C0140A200002010B5142087
:1008200002F0CEF940211C4800F086FA38B94FF4A6
:1008300000711A4800F089FA022019490870202135
:10084000154800F079FA38B94FF40071134800F0F8
:100850007CFA03201249087080210F4800F06CFADE
:1008600038B94FF400710D4800F06FFA04200C49BC
:100870000870402000F082F8202000F07FF88020EF
:1008800000F07CF8022002F09BF94FF4007103485D
:1008900000F05DFA10BD000000080140000C0140AE
:1008A000A20000200EB500F067FA0121084601F011
:1008B00047F900208DF808000C208DF80900012070
:1008C0008DF80A0001A800F05FF80121002000F077
:1008D0003FF90220019001A800F056F80421002001
:1008E00000F036F91020019001A800F04DF8052124
:1008F000002000F02DF92020019001A800F044F81C
:100900000621002000F024F94020019001A800F009
:100910003BF80721002000F01BF98020019001A87E
:1009200000F032F807208DF8000003208DF8010058
:1009300002208DF8020001208DF80300684600F0C7
:1009400075FD0A208DF8000003208DF801000120BC
:100950008DF802008DF80300684600F067FD17204F
:100960008DF8000003208DF801008DF802000120B1
:100970008DF80300684600F059FD0EBD014908607E
:100980007047000014040140002123498279002AA5
:100990003AD00A46126803689A430B461A600A1D49
:1009A000126803689A430B1D1A60027911440A68A1
:1009B00003681A430A60184A0832126803689A43A7
:1009C000154B08331A601A1D126803689A43124BBC
:1009D0000C331A604279102A0ED11A1F126803686C
:1009E0001A430D4B08331A601A1D126803681A4324
:1009F000094B0C331A600DE00749427911440A682B
:100A000003681A430A6005E0027911440A68036822
:100A10009A430A60704700000004014008B5684628
:100A200000F097F901211C2001F08AF84FF40040F2
:100A3000ADF8000003208DF8020010208DF80300AF
:100A40006946404800F0A4F84020ADF800000320BB
:100A50008DF8020010208DF803006946394800F037
:100A600097F84FF40050ADF8000003208DF8020015
:100A700010208DF803006946324800F089F84FF4E1
:100A80000050ADF8000003208DF8020010208DF812
:100A9000030069462B4800F07BF84FF40070ADF876
:100AA000000003208DF8020010208DF80300694635
:100AB000254800F06DF84FF40071234800F047F925
:100AC0000120ADF8000010208DF8030003208DF800
:100AD000020069461D4800F05BF80120ADF80000F7
:100AE00010208DF8030003208DF802006946154898
:100AF00000F04EF80220ADF8000010208DF8030041
:100B000003208DF8020069460E4800F041F80420E9
:100B1000ADF800008DF8030003208DF8020069464F
:100B2000084800F035F80820ADF8000010208DF8D6
:100B3000030003208DF802006946024800F028F8FF
:100B400008BD000000100140000C014000080140F9
:100B500030B500228B071C0F0F2303FA04F20B4B56
:100B60008C1053F824309343084C8D1044F82530F2
:100B700023468C1053F824308C07240F00FA04F419
:100B80002343024C8D1044F8253030BD080001404D
:100B90002DE9F04102460025002600200023002414
:100BA000002791F803C00CF00F0591F803C00CF07A
:100BB000100CBCF1000F03D091F802C04CEA0505FF
:100BC00091F800C0BCF1000F31D0146800202BE078
:100BD0004FF0010C0CFA00F3B1F800C00CEA030668
:100BE0009E4220D183004FF00F0C0CFA03F7BC4358
:100BF00005FA03FC4CEA040491F803C0BCF1280F89
:100C000006D14FF0010C0CFA00FCC2F814C00AE047
:100C100091F803C0BCF1480F05D14FF0010C0CFA5C
:100C200000FCC2F810C0401C0828D1D31460B1F8F1
:100C300000C0BCF1FF0F34DD546800202EE000F14D
:100C4000080C4FF0010808FA0CF3B1F800C00CEAE8
:100C500003069E4221D183004FF00F0C0CFA03F7DC
:100C6000BC4305FA03FC4CEA040491F803C0BCF150
:100C7000280F05D100F1080C08FA0CF8C2F814800E
:100C800091F803C0BCF1480F07D100F1080C4FF0F8
:100C9000010808FA0CF8C2F81080401C0828CED3CE
:100CA0005460BDE8F0810000F0B50A46002300243E
:100CB0000021002500F00046B6F1004F02D11D4E84
:100CC000F16901E01B4E7168C0F3034583B200F483
:100CD0004016B6F5401F08D121F07061154E7668B8
:100CE00026F07066134F7E6012E000F48016B6F5B1
:100CF000801F06D1032606FA05F4A14341F0706176
:100D000006E0460D360103FA06F6B14341F0706184
:100D100022B1460D360103FA06F6314300F00046D3
:100D2000B6F1004F02D1034EF16101E0014E716056
:100D3000F0BD0000000001400246002093680B4017
:100D40000BB1012000E00020704741617047016154
:100D500070474FF6FF710180022181700421C1703C
:100D600070470246002100E0491C505C0028FBD17E
:100D7000C8B2704700BFFEE708B50121042000F0AB
:100D8000DFFEF220ADF8000048208DF80300694630
:100D90000148FFF7FDFE08BD0008014070B506469A
:100DA000EF2340F23F1200210846FFF783FA0024A8
:100DB00008E0002503E0304600F0ACF96D1CF02D92
:100DC000F9D3641CB4F5A07FF3D370BD2DE9FF4FB8
:100DD00085B081468A460020049003900798A0EBD6
:100DE00009050898A0EB0A06CDF80890CDF804A0F4
:100DF000002D01DD012705E00DB9002702E04FF0CD
:100E0000FF376D42002E02DD4FF0010806E016B9F3
:100E10004FF0000802E04FF0FF387642B54201DDA6
:100E20002C4600E034464FF0000B1DE0DDE90110D8
:100E300000F020F80498284404900398304403906C
:100E40000498A04205DD0498001B049002983844E1
:100E500002900398A04205DD0398001B03900198BF
:100E6000404401900BF1010B601C8345DED909B0B1
:100E7000BDE8F08F70B504460D462B462246294644
:100E80002046FFF717FA0248006800F043F970BDEA
:100E9000BC0000202DE9F04104460D4616461F46D1
:100EA0002B46324629462046FFF790FF3B46224616
:100EB00029462046FFF78AFF3B4632463946204600
:100EC000FFF784FF3B46324629463046FFF77EFF58
:100ED000BDE8F0812DE9F04704460D4616461F4651
:100EE000DDF820A03B46324629462046FFF7E2F9CE
:100EF000A8460AE0A14604E0504600F00BF909F1CB
:100F00000109B145F8D908F10108B845F2D9BDE8A1
:100F1000F08700002DE9F84F05460F4616469A4621
:100F2000AB46324800680090B5F5987F01D8E02FB5
:100F300001D9BDE8F88FA6F12000C6B207F10F0372
:100F4000EA1D39462846FFF7B5F9BAF1000F29D155
:100F5000002424E004EB0610254911F800904FF01E
:100F6000000815E009F0010018B120490098086058
:100F700003E0204800681D4908601C48006800F034
:100F8000C9F84FEA69096D1C08F1010000F0FF087B
:100F9000B8F1080FE6DB5D467F1C601CC4B2102C64
:100FA000D8DB1EE000241AE004EB0610104911F80B
:100FB00000904FF000080DE009F0010020B1391950
:100FC00005EB0800FFF756FF4FEA690908F1010039
:100FD00000F0FF08B8F1080FEEDB601CC4B2102C63
:100FE000E2DB02490098086000BFA2E7BC000020D5
:100FF0008C310008B800002070B505460E46144636
:1010000015E0B5F5987F01D900251036E02E06D9F8
:101010000020054606464FF47840FFF7BFFE2278D1
:10102000002331462846FFF775FF0835641C2078F9
:101030000028E6D170BD2DE9F04106460F46144662
:10104000002508E006EB05102246394600F008F8B6
:10105000A41C681CC5B220780028F3D1BDE8F0813B
:101060002DE9F84F81468A4615460AF10F0309F12A
:101070000F0251464846FFF71DF94FF06B0B202039
:10108000009000243BE004EB04101F4901EB4000FA
:1010900090F820002978884230D104EB04101A49D6
:1010A00001EB400090F821006978884226D104EBDA
:1010B0000410154901EB400600271BE04FF0000823
:1010C00012E03078012101FA08F1084020B10F4800
:1010D000006800F01FF803E00D48006800F01AF8FF
:1010E00008F1010000F0FF08B8F1080FE9DB761CF9
:1010F000781CC7B200988742E0D302E0641C5C45CC
:10110000C1D300BFBDE8F88F7C370008BC000020C9
:10111000B800002010B5044601210548FFF717FE6E
:10112000C4F3072000F01EF8E0B200F01BF810BD79
:10113000000C014010B5044601210348FFF707FEEB
:10114000204600F00FF810BD000C014010B5044619
:1011500001210348FFF7F9FD204600F003F810BD18
:10116000000C014010B50446204600F0C7FD10BD3C
:1011700008B50121082000F0E3FC41F20300ADF8BE
:10118000000010208DF8030003208DF8020069464E
:101190008B48FFF7FDFC4FF203018948FFF7D7FDAD
:1011A00000F068FD02218648FFF7CFFD142001F012
:1011B00007FD02218248FFF7CAFD142001F000FD5F
:1011C0004FF480517E48FFF7C2FDCF20FFF7BEFFEE
:1011D0000020FFF7AFFFD920FFF7ACFF3020FFF76B
:1011E000A9FFED20FFF7B2FF6420FFF7A3FF032064
:1011F000FFF7A0FF1220FFF79DFF8120FFF79AFF66
:10120000E820FFF7A3FF8520FFF794FF1020FFF7EA
:1012100091FF7820FFF78EFFCB20FFF797FF392053
:10122000FFF788FF2C20FFF785FF0020FFF782FFE4
:101230003420FFF77FFF0220FFF77CFFF720FFF746
:1012400085FF2020FFF776FFEA20FFF77FFF0020D1
:10125000FFF770FF0020FFF76DFFC020FFF776FF5C
:101260002120FFF767FFC120FFF770FF1220FFF773
:1012700061FFC520FFF76AFF3220FFF75BFF3C20CC
:10128000FFF758FFC720FFF761FFC120FFF752FFAC
:101290003620FFF75BFFB820FFF74CFF3A20FFF73F
:1012A00055FF5520FFF746FFB120FFF74FFF002005
:1012B000FFF740FF1820FFF73DFFB620FFF746FF7E
:1012C0000A20FFF737FFA220FFF734FFF220FFF7D5
:1012D0003DFF0020FFF72EFF2620FFF737FF0120FC
:1012E000FFF728FFE020FFF731FF0F20FFF722FF75
:1012F0002020FFF71FFF1E20FFF71CFF0920FFF72C
:1013000019FF1220FFF716FF0B20FFF713FF5020E5
:10131000FFF710FFBA20FFF70DFF4420FFF70AFF89
:101320000920FFF707FF1420FFF704FF0520FFF750
:1013300001FF2320FFF7FEFE2120FFF7FBFE002028
:10134000FFF7F8FEE120FFF701FF0020FFF7F2FEB4
:101350001920FFF7EFFE1920FFF7ECFE0020FFF742
:10136000E9FE1220FFF7E6FE0720FFF7E3FE2D203F
:10137000FFF7E0FE2820FFF7DDFE3F20FFF7DAFE53
:101380000220FFF7D7FE0A20FFF7D4FE0820FFF760
:10139000D1FE2520FFF7CEFE2D20FFF7CBFE0F203C
:1013A000FFF7C8FE1120FFF7D1FE782001F008FCFE
:1013B0002920FFF7CBFE0020FFF7F0FC08BD00005E
:1013C000000C014010B50446412C24D108210846E8
:1013D000FEF7FAFF3D21112001F076FB8621172050
:1013E00001F072FB7F21262001F06EFB1E212D20D3
:1013F00001F06AFB00212C2001F066FB8D212A20E0
:1014000001F062FB3E212B2001F05EFB022001F087
:10141000FDFB00F04DF810BD00BFFEE7704710B5B2
:101420004FF4A06000F03AF810BD000070B5002144
:1014300000230F22C47804B3154C246804F4E0643C
:10144000C4F5E064210AC1F10403CA40447804FAF7
:1014500003F184781440214309010E4C0678A1550C
:10146000047804F01F050124AC4005786D11AD002F
:1014700005F1E025C5F8004109E0047804F01F05F6
:101480000124AC40044D0678761145F8264070BD25
:101490000CED00E000E400E080E100E002490143DF
:1014A000024A1160704700000000FA050CED00E0F0
:1014B00010B5142000F0BEFB044604F0030018B978
:1014C0000321142000F0CDFC10BDF0B587B0054617
:1014D000002708210846FEF777FF00210D2001F0C4
:1014E000F3FA80210E20FEF76FFF93208DF808009D
:1014F00020208DF8090001A802AB022202A9009069
:101500000C2000F051F8064686B9002407E002A836
:10151000005D285502A8005D4740601CC4B2042C41
:10152000F5DB02A8005DB84200D0022680210E2023
:1015300000F097FC304607B0F0BD2DE9F04387B0CE
:1015400006460F46904699468DF808608DF809705A
:10155000002406E018F8041002AAA01C1154601C14
:10156000C4B2062CF6DB002407E019F8041002AA26
:1015700004F108001154601CC4B2062CF5DB01A86C
:1015800002AB0C2202A900900E2000F00DF80546D7
:101590002DB9082000F04EFB00F0080000B902252C
:1015A000284607B0BDE8F0832DE9FE4F0646884681
:1015B00091469A46DDF830B002200290002001905A
:1015C00000900C2E06D00E2E09D112200190102072
:1015D000009005E0772001903020009000E000BFEF
:1015E00000BF019840F08001022001F06DFA8021D7
:1015F0000420FEF7E9FE0021012001F065FA8021B8
:101600000A2000F02EFC002505E018F8051009203E
:1016100001F05AFA6D1C4D45F7D33146012001F017
:1016200053FA0C2E03D180210D2000F01AFC4FF448
:101630007A7500BF042000F0FDFA04466D1E35B136
:1016400004F0010018B9009820400028F2D0802151
:101650000D20FEF7B9FE95B3062000F0EBFA00F07E
:101660001B0068BB002002900198204000F00100A0
:1016700008B1012002900C2E24D10A2000F0DAFAE1
:1016800004460C2000F0D6FA00F007072FB1601EC8
:1016900007EBC000CBF8000002E0E000CBF8000050
:1016A00004B90124122C00DD1224002505E00920D4
:1016B00000F0C0FA0AF805006D1CA542F7D301E05E
:1016C0000220029080210C2000F0CBFB00210120A1
:1016D00001F0FAF90298BDE8FE8FF0B587B0054633
:1016E0000E4630208DF808008DF809500DF10A02E1
:1016F000022102A8FEF732FE01A802AB042202A9D1
:1017000000900C20FFF750FF074667B9019890281A
:1017100009D1002404E002A8005D3055601CC4B269
:10172000102CF8DB00E00227384607B0F0BD70B59A
:1017300088B005460C4608210846FEF745FE0721FD
:101740000D2001F0C1F90321142000F08AFB8DF86F
:101750000C5002A803AB012203A900900C20FFF754
:1017600023FF06464EB90298102806D19DF80C00BA
:1017700020709DF80D00607000E00226304608B031
:1017800070BD000010B501211D48FFF7E0FA0120EF
:1017900001F03CFA01211A48FFF7D7FA012001F0C5
:1017A00035FA01211648FFF7D2FA012001F02EFA8E
:1017B0000F21012001F088F900BF012000F03AFA62
:1017C00000F010000028F8D1012001F01FFA3D219F
:1017D000112001F079F91E212D2001F075F9002169
:1017E0002C2001F071F98D212A2001F06DF93E21A4
:1017F0002B2001F069F94021152001F065F910BD99
:101800000008014070B588B0054693208DF80C00A3
:1018100070208DF80D0000208DF8120000240BE0E0
:10182000295D03AAA01C11549DF81200295D4840AF
:101830008DF81200601CC4B2042CF1DB0DF1130210
:10184000072103A8FEF78AFD08210846FEF7BCFD24
:1018500002A803AB092203A900900C20FFF7A4FE05
:10186000064626B90298182801D1002600E0022673
:10187000304608B070BD70472DE9F04105460B4673
:10188000164600240022002100201F4601E07F1C94
:10189000521C97F800C0BCF1000FF8D1002416E0EC
:1018A00000210CE005EB040C1CF801C013F80180CA
:1018B000C44501D1012001E0002002E0491C914211
:1018C000F0D300BF914201D1BDE8F081641CA6EBCA
:1018D000020CA445E4D800BFF6E7000010B500F004
:1018E000C3F901210648FFF732FA01210548FFF745
:1018F0002EFAFFF747FF4120FFF764FD10BD0000FF
:10190000000801400010014070B5054600244D4913
:101910005220FFF70CFF4C4908700846007830B998
:10192000022008704948FFF7D0FD47490870464833
:101930000078002833D102204349087044A000F009
:101940000FFE0823454A0421404801F0D9F84348D6
:1019500000F006FE414AB0218020FFF74DFB4FF416
:1019600000713F48FFF7F1F9142001F029F94FF415
:1019700000713B48FFF7EBF901203A490870334802
:10198000FFF740FF30490870152237A13C4801F0AD
:10199000E9F8082231493A480C3001F0E3F82A48C6
:1019A0000078002829D1022027490870274B354AA2
:1019B00029466020FFF7C1FD2349087008460078DA
:1019C00018B931A000F0CCFD05E036A000F0C8FD4C
:1019D00000201D4908701D4B394A29466120FFF738
:1019E000ACFD194908700846007818B935A000F018
:1019F000B7FD02E03AA000F0B3FD13480078F8B953
:101A00000220114908703D492846FFF766FE0E493D
:101A100008700846007880B939A000F0A1FD0024C4
:101A200005E03649085D00F08BFD601CC4B2102C47
:101A3000F7DB35A000F094FD02E034A000F090FD4B
:101A400070BD0000F000002034010020F2000020F2
:101A500043617264204944203D000000F6000020EC
:101A6000000C014036010020487764616630373051
:101A7000336F6666202020202020202054000000A4
:101A80004C010020C4000020506364417574685309
:101A90007461746528412920737563636573730DE0
:101AA0000A00000050636441757468537461746582
:101AB000284129206661696C65640D0A00000000F8
:101AC000CA00002050636441757468537461746582
:101AD00028422920737563636573730D0A00000043
:101AE0005063644175746853746174652842292099
:101AF0006661696C65640D0A00000000A40800209E
:101B0000444154413A0000000D0A00005063645201
:101B10006561642829206661696C65640D0A0000AE
:101B200029B1064AD2690243044BDA6104E0034A50
:101B3000D2698243014BDA61704700000010024015
:101B400029B1064A92690243044B9A6104E0034AB0
:101B500092698243014B9A61704700000010024075
:101B600030B500210022002400232D4D6D6805F0C2
:101B70000C0121B1042905D0082923D105E0294D04
:101B8000056022E0274D05601FE0254D6D6805F4D6
:101B90007012234D6D6805F48034022505EB9242E6
:101BA0001CB9214D554305600BE01D4D6D6805F4D2
:101BB00000351DB11C4D5543056002E0194D5543DC
:101BC000056002E0174D056000BF00BF144D6D6851
:101BD00005F0F0010909154D6B5C0568DD404560B5
:101BE0000F4D6D6805F4E061090A104D6B5C4568A6
:101BF000DD4085600A4D6D6805F46051C90A0B4DE2
:101C00006B5C4568DD40C560054D6D6805F440417D
:101C1000890B074D6B5CC568B5FBF3F5056130BDFD
:101C20000010024000127A0000093D008E000020E2
:101C30009E00002070B504467E2000EA440040F07B
:101C4000800501210748FFF780F8284600F0DEF8FC
:101C500000F0B6F8064601210248FFF778F8304652
:101C600070BD00000010014010B501210C20FFF7ED
:101C700067FF10BD00B587B001210820FFF760FFA6
:101C800001218803FFF74CFF4FF46040ADF81800C6
:101C900018208DF81B0003208DF81A0006A915489E
:101CA000FEF776FF0020ADF804004FF48270ADF827
:101CB00006000020ADF808000220ADF80A0001205F
:101CC000ADF80C004002ADF80E000020ADF8100099
:101CD000ADF812000720ADF8140001A9064800F085
:101CE00051F80121044800F033F8FF2000F006F815
:101CF00007B000BD000C01400038004070B505463B
:101D0000002405E0601CC4B2C82C01DD002070BDB9
:101D100002210E4800F028F80028F3D029460B488D
:101D200000F02EF8002405E0601CC4B2C82C01DDD0
:101D30000020ECE70121054800F016F80028F3D058
:101D4000024800F01AF8C0B2E1E700000038004095
:101D500021B1028842F04002028004E002884FF67E
:101D6000BF731A40028070470246002013890B405F
:101D70000BB1012000E000207047014688897047C0
:101D80008181704710B50022028802F441520B880D
:101D90004C8823438C882343CC8823430C892343DA
:101DA0004C8923438C892343CC8923431A430280E3
:101DB000838B4FF2FF74234083830B8A038210BD11
:101DC00070B500251CE06006040E02210E48FEF7E7
:101DD000BCFF142000F01AFF04210B48FEF7ACFFF3
:101DE000012801D144F00104142000F00FFF02216A
:101DF0000548FEF7ACFF142000F008FF681CC5B2D0
:101E0000082DE0DB204670BD0010014070B504468F
:101E1000002520E004F0800020B108210F48FEF7E3
:101E200096FF03E008210D48FEF78FFF142000F015
:101E3000EDFE02210948FEF788FF142000F0E6FEBF
:101E400002210648FEF783FF142000F0DFFE600643
:101E5000040E681CC5B2082DDCDB70BD001001400B
:101E6000704770B505460C462846FFF7E3FE064668
:101E700046EA0401284600F027FE70BD10B500F0C8
:101E800001F810BD0CB500200190009033480068A7
:101E900040F480303149086000BF3048006800F4E9
:101EA000003000900198401C0190009818B90198EA
:101EB000B0F5A06FF1D12948006800F4003010B1EE
:101EC0000120009001E0002000900098012843D1FB
:101ED0002348006840F01000214908600846006867
:101EE00020F0030008600846006840F00200086027
:101EF0001A484068194948600846406848600846E2
:101F0000406840F4806048600846406820F47C10D7
:101F100048600846406840F4E81048600846006899
:101F200040F08070086000BF0C48006800F000704E
:101F30000028F9D00948406820F0030007494860AC
:101F40000846406840F00200486000BF034840680F
:101F500000F00C000828F9D10CBD00000010024070
:101F600000200240042808D14FF0E021096941F027
:101F700004014FF0E022116107E04FF0E021096910
:101F800021F004014FF0E02211617047704700001A
:101F900010B51348006840F0010011490860084678
:101FA0004068104908400E494860084600680E49DC
:101FB00008400B4908600846006820F4802008604B
:101FC0000846406820F4FE0048604FF41F00886017
:101FD000FFF754FF4FF000600449086010BD000097
:101FE000001002400000FFF8FFFFF6FE08ED00E0E1
:101FF00030B589B005460C4601210846FFF790FD33
:1020000001210520FFF79CFD0120ADF820001820DC
:102010008DF8230003208DF8220008A91848FEF748
:10202000B7FDADF81850ADF814400020ADF81A0017
:10203000ADF8160005A94FF0804000F0D7F97020E8
:10204000ADF804000120ADF806000020ADF80C004A
:1020500001A94FF0804000F013F901A94FF0804032
:1020600000F064F90821C80600F056F90821C806F6
:1020700000F0AEF90121880700F0DBF809B030BDAF
:102080000008014010B50121404800F0DEF80028AA
:102090007BD001213D4800F0C9F83D480078142864
:1020A00005DA3B480078401C3949087005E00120FA
:1020B00038490870002036490870374800781428DD
:1020C00005DA35480078401C3349087005E00120E6
:1020D000324908700020304908703148007896284D
:1020E00005DA2F480078401C2D49087005E00020D3
:1020F0002B49087001202B4908702B48007820B12B
:1021000029480078401E284908702848007820B1E6
:1021100026480078401E254908702548007820B1DF
:1021200023480078401E224908702248007832284F
:1021300005DA20480078401C1E49087005E00020A0
:102140001C49087001201C4908701C48007820B107
:102150001A480078401E194908701948007820B1C3
:1021600017480078401E164908701648007820B1BC
:1021700014480078401E134908701348007820B1B5
:1021800011480078401E1049087010BD000400403E
:102190006000002061000020690000206A0000202B
:1021A00065000020640000206E0000206F00002009
:1021B000680000206B0000206C0000207C000020E4
:1021C0007000002063000020620000207FB50546FB
:1021D0000C4601210220FFF7A3FCADF80850ADF832
:1021E00004400020ADF80A00ADF8060001A90E4831
:1021F00000F0FCF8012211460B4800F037F81D20D2
:102200008DF8000000208DF8010003208DF80200F9
:1022100001208DF803006846FFF708F90121024804
:1022200000F007F87FBD000000040040CA430282AE
:10223000704721B1028842F00102028004E0028866
:102240004FF6FE731A400280704730B502460020F8
:1022500000230024158A05EA0103958905EA010493
:1022600013B10CB1012000E0002030BD1AB1838908
:102270000B43838102E083898B4383817047000095
:1022800070B5002400220023058C4FF6FE76354001
:102290000584028C8388048B4FF68F752C40B51E05
:1022A0002C400D882C43751E2A400D892A434D88E9
:1022B0002A43144DA8420BD0134DA84208D0134D09
:1022C000A84205D0124DA84202D0124DA84213D107
:1022D0004FF6F7752A404D892A434FF6FB752A4081
:1022E0008D882A434FF6FF652B404FF6FF552B4054
:1022F0008D892B43CD892B4383800483CD888586AC
:10230000028470BD002C01400034014000400140B7
:1023100000440140004801400A460021018B4FF66D
:10232000F7731940114301837047000070B5002412
:1023300000220023058C4FF6EF7635400584028C91
:102340008388048B48F6FF752C404FF6FF452C40E0
:102350000D884FF6FF7606EA05252C434FF6DF750C
:102360002A400D8906EA05152A434D8806EA051517
:102370002A43154DA84202D0144DA8421DD14FF654
:102380007F752A404D894FF6FF7606EA05152A43E8
:102390004FF6BF752A408D8806EA05152A434FF689
:1023A000FF352B404FF2FF752B408D8906EA8505DE
:1023B0002B43CD8906EA85052B4383800483CD8892
:1023C0000587028470BD0000002C014000340140EC
:1023D0000A460021018B4FF2FF7319404FF6FF733D
:1023E00003EA022319430183704700000022028898
:1023F0001D4B98420ED01D4B98420BD0B0F1804F30
:1024000008D01B4B984205D01A4B984202D01A4B69
:10241000984204D14FF68F731A404B881A43174BDA
:10242000984207D0164B984204D04FF6FF431A400B
:10243000CB881A4302808B8883850B8803850A4BDF
:1024400098420BD0094B984208D00E4B984205D0C9
:102450000D4B984202D00D4B984201D10B7A038666
:102460000123838270470000002C014000340140AA
:102470000004004000080040000C00400010004034
:102480000014004000400140004401400048014069
:1024900010B504462146054800F07DFA00BF8021B2
:1024A000024800F0AAF90028F9D010BD0038014018
:1024B00010B5044603E02078FFF7EAFF641C20789B
:1024C0000028F8D110BD000010B540F22551174882
:1024D00000F0A0F948B3012015490870134800F036
:1024E00055FAC4B21348144909884454204600F0F0
:1024F00027F8104810490988405C4B2809D10E483C
:102500000088401E0B49085C4F2802D101200B496E
:10251000087009480088401C074908800846008860
:10252000B0F5487F01DB0020088010BD0038014075
:102530007D0000209C010020740000208400002009
:1025400010B50446E1B2054800F025FA00BF80212D
:10255000024800F052F90028F9D010BD00440040B4
:1025600010B5044603E02078FFF7EAFF641C2078EA
:102570000028F8D110BD00001FB5044600F084F813
:1025800000F01EF800940020ADF80400ADF806003D
:10259000ADF80800ADF80C000C20ADF80A00694653
:1025A000064800F087F9012240F22551034800F067
:1025B0005BF90121014800F014F91FBD00440040FF
:1025C00008B56846FEF7C5FB0820ADF800000420FA
:1025D0008DF8030069460848FEF7DAFA0420ADF8E2
:1025E000000003208DF8020018208DF803006946D2
:1025F0000148FEF7CDFA08BD0008014010B540F2D1
:102600002551134800F006F908B3114800F0BEF94F
:10261000C4B210481049098844540F490988405CE5
:102620000A2809D10C480088401E0A49085C0D2878
:1026300002D101200949087007480088401C06495A
:10264000088008460088F92801DD0020088010BDB8
:1026500000440040BC040020760000207F000020E1
:1026600008B54FF4E060FEF719FF26208DF8000052
:1026700002208DF801008DF8020001208DF8030082
:102680006846FEF7D3FE08BD10B5012144F21500DF
:10269000FFF756FA01210248FFF742FA10BD000089
:1026A000020006001FB5044600F01EF8009400204A
:1026B000ADF80400ADF80600ADF80800ADF80C0068
:1026C0000C20ADF80A006946064800F0F3F8012234
:1026D00040F22551034800F0C7F80121014800F0FD
:1026E00080F81FBD0048004008B56846FEF731FB82
:1026F0004FF40060ADF8000004208DF80300694637
:102700001548FEF745FA4FF48060ADF8000003204D
:102710008DF8020018208DF8030069460E48FEF778
:1027200037FA4FF40060ADF8000004208DF8030084
:1027300069460A48FEF72CFA4FF48060ADF80000B5
:1027400003208DF8020018208DF803006946034825
:10275000FEF71EFA08BD000000100140000C014009
:1027600010B540F22551104800F054F8D0B10E4891
:1027700000F00CF9C4B20D480088C0F30D000C49FC
:102780000C540A480088401C084908800846008804
:10279000F92801DD00200880012006490870052085
:1027A0000549087010BD0000004800407800002076
:1027B000B6050020800000207C00002008B54FF402
:1027C000E060FEF76BFE27208DF8000001208DF8F9
:1027D00001008DF802008DF803006846FEF726FE22
:1027E00008BD21B1828942F40052828104E08289CD
:1027F0004DF6FF731A408281704702460020B1F502
:10280000007F00D100BF13880B400BB1012000E016
:102810000020704770B502460024002300250020E8
:1028200040F66A16B14200D100BFC1F3421501F073
:102830001F03012606FA03F3012D02D196893340C6
:1028400006E0022D02D1168A334001E0968A334019
:102850000C12012606FA04F41688344013B10CB1A8
:10286000012000E0002070BDF0B5034600240026E2
:102870000025002040F66A17B94200D100BF184673
:10288000C1F3421401F01F06012707FA06F5012CD7
:1028900001D10C3004E0022C01D1103000E01430E2
:1028A0001AB107682F43076002E00768AF4307606B
:1028B000F0BD00002DE9F04786B005460E46002425
:1028C000A24600BFA1460027B08900B100BF2F4635
:1028D0002C8A4CF6FF700440F08804432C82AC89AB
:1028E0004EF6F3100440B0883189084371890843DB
:1028F0000443AC81AC8A4FF6FF400440B0890443E6
:10290000AC8201A8FFF72CF91F48874202D1DDF8FD
:1029100010A001E0DDF80CA0A88900F4004040B14F
:102920000AEBCA0000EB0A1031684900B0FBF1F86D
:1029300007E00AEBCA0000EB0A1031688900B0FB1F
:10294000F1F86420B8FBF0F004012009642101FBD8
:102950001089A88900F4004040B1322000EBC90082
:10296000B0FBF1F000F00700044308E0322000EB78
:1029700009106421B0FBF1F000F00F0004432C813A
:1029800006B0BDE8F08700000038014001468888A5
:10299000C0F308007047C1F308028280704700BF8F
:1029A000FEE7000010B586B00446012144F20D0098
:1029B000FFF7C6F84FF40070ADF8140003208DF84F
:1029C000160018208DF8170005A92848FEF7E0F832
:1029D0004FF48060ADF8140004208DF8170005A9AD
:1029E0002248FEF7D5F84020ADF8140003208DF8FA
:1029F000160018208DF8170005A91D48FEF7C8F825
:102A00008020ADF8140004208DF8170005A918489F
:102A1000FEF7BEF825208DF8000000208DF801009B
:102A20008DF8020001208DF803006846FEF7FEFCD9
:102A300001940020ADF80800ADF80A00ADF80C00D4
:102A4000ADF810000C20ADF80E0001A90948FFF701
:102A500031FF012240F225510648FFF705FF012111
:102A60000448FFF7BEFE06B010BD0000000801409C
:102A7000000C01400038014010B50446FFF704FE89
:102A8000FFF79EFD2046FFF777FDFFF7E9FD10BD3C
:102A900010B50446012144F21500FFF751F8012159
:102AA0000748FFF73DF801210648FEF7FDF8FFF75C
:102AB0001BFE2046FFF7F6FDFFF780FE10BD00006D
:102AC000020006001000140070B504460D467E207A
:102AD00000EA440601210748FEF737F93046FFF7C0
:102AE00095F92846FFF792F901210248FEF72FF9E0
:102AF00070BD000000100140014600BF704700009B
:102B00002DE9FF4F04460D460021002000260FF25C
:102B1000440B9BE8000F8DE8000F00BF00BF13E0DF
:102B200014F801804FF00F0909EA28161DF806C0B5
:102B300002F800C014F8018008F00F061DF80670B6
:102B4000401C1754491C401CA94201DA9842E7DB9B
:102B5000BDE8FF8F303132333435363738394142B2
:102B60004344454610B50346002003E00C5C1C546A
:102B7000441CE0B29042F9DB10BD000010B56FF0CC
:102B80000400FFF7EFF90A4800680A49B0FBF1F0CA
:102B9000094908700846007800EB4001C1EBC010FD
:102BA0004FF6FF7101EAC0000449088010BD000023
:102BB0004800002000127A005C0000205E00002027
:102BC0000146114A12884A434FF0E0235A6100221D
:102BD0009A611A46126942F001021A6100BF4FF071
:102BE000E022106900F001021AB100F48032002ADC
:102BF000F5D04FF0E022126922F001024FF0E023FD
:102C00001A6100229A6170475E0000200146114A55
:102C100012784A434FF0E0235A6100229A611A4623
:102C2000126942F001021A6100BF4FF0E022106900
:102C300000F001021AB100F48032002AF5D04FF002
:102C4000E022126922F001024FF0E0231A61002213
:102C50009A6170475C00002008B51F48007860B397
:102C6000FEF73CFE00201C4908701C48007898B113
:102C700000201A4908704FF400411948FEF765F822
:102C80004FF6E070C4234FF49E72B42100904FF4CD
:102C90009670FEF71FF910E0012010490870C1037B
:102CA0000F48FEF754F80020C4234FF49E72B4215D
:102CB00000904FF49670FEF70DF90A48007830B195
:102CC0004FF47A70FFF77CFF00200649087001205E
:102CD000FEF71AFE08BD00006A0000201800002060
:102CE000001001403601002044206849087022206D
:102CF0004870FDF793FEFFF741FFFEF739FAFDF745
:102D0000D1FD4FF4E130FFF74DFE4FF4E130FFF716
:102D1000B3FE4FF41650FFF7BBFEFEF780FB41F603
:102D20001F4140F2E730FFF751FA502140F6C90049
:102D3000FFF75EF9FEF7D2FD0020554908604FF617
:102D4000E0705449086054A20A215A20FEF773F932
:102D50004FF4FC604F490860F0234FF4A072282123
:102D60000020FEF797F800205049087009E0002085
:102D70004F494E4A127888544C480078401C4B49C1
:102D800008704A4800781428F1DB00204749087091
:102D900009E000214748454A1278815443480078A9
:102DA000401C42490870414800783228F1DB4FF45A
:102DB00000514148FDF7CBFF40A2B0212020FEF793
:102DC0001BF90C2240A13B48FFF7CCFE42A2802118
:102DD0007020FEF711F957E0FDF704FB4FF448723D
:102DE0003FA14348FEF748FD08B1FFF735FF4148D2
:102DF000007840B14048007828B900203D4908706B
:102E000000F0BEF840E04FF448723CA13848FEF7AD
:102E100033FD18B101203F49086035E04FF4487296
:102E20003DA13348FEF728FD18B10120394908605B
:102E30002AE04FF448723DA12D48FEF71DFD18B160
:102E40000120344908601FE04FF448723DA1284832
:102E5000FEF712FD18B100202E49086014E04FF46F
:102E600048723DA12248FEF707FD18B1002029490C
:102E7000086009E04FF448723CA11D48FEF7FCFCD5
:102E800010B1002023490860A6E70000F0000020F0
:102E9000B8000020BC000020CDBCCAE9C2BCC8EB11
:102EA000C9EDB7DDCAB6B1F000000000080000208F
:102EB000380100204C010020001001404361726481
:102EC000204944203D000000487764616630373077
:102ED000326F6E5400000000323032313236000062
:102EE0004877636166303730326F66666F6B5400C7
:102EF0009C01002061000020C2000020487763612F
:102F000072303730326C696768746572726F7254F0
:102F10000000000098012242487763617230373028
:102F20003264656E676572726F72540048776361D0
:102F300072303730326D6F746F726572726F7254A7
:102F4000000000004877636172303730326C696787
:102F50006874776F726B54004877636172303730F2
:102F60003264656E67776F726B54000048776361F7
:102F700072303730326D6F746F72776F726B5400CE
:102F800010B50E2250A15448FFF7ECFD5348FDF751
:102F9000E8FE53490870084600780A280EDA084609
:102FA00000780A2190FBF1F201FB120030304A490F
:102FB00048730D2088730A20C8731AE048480078C7
:102FC000642190FBF1F201FB12000A2190FBF1F069
:102FD000303041494873424800780A2190FBF1F2B1
:102FE00001FB120030303C4988730D20C8730A2061
:102FF00008743948FFF7B4FA3748FFF759FA1E202A
:10300000384908704FF6E0703749086037A29421BC
:10301000D820FDF7F1FF23E00020314908700EE0D1
:1030200036482F490978405C3E2803D100203449B6
:1030300008600AE02A480078401C2949087028489E
:103040000078304909688842EAD300BF25480078F3
:1030500030B900202A49086001202B49087003E09C
:10306000274800680028D7D100BF2748007850BB08
:103070000120234908601948FFF772FA1748FFF743
:1030800017FA22A29421D820FDF7B6FF00F04EF8DF
:1030900022A29421D820FDF7AFFFFDF73BF9FDF701
:1030A0004BF900200E49087009E000200A490C4A3B
:1030B000127888540A480078401C0949087008486A
:1030C00000781428F1DB10BD41542B43495053457F
:1030D0004E443D342C300000380100204C010020CB
:1030E0000800002070000020BC00002073656E64A2
:1030F000206C656E2E2E2E20000000009C0100200A
:103100001400002074000020C200002073656E646B
:1031100020646174612E2E2E00000000446F6E65E5
:1031200020212020202020200000000010B51E209B
:103130000849087003E00748007800B903E0064832
:1031400000780028F7D000BF002003490870FDF781
:10315000E1F810BD700000208400002010B546206A
:103160000849087003E00748007800B903E0064802
:1031700000780028F7D000BF002003490870FDF751
:10318000C9F810BD7000002084000020000000007D
:103190000000000000000000000000000000000827
:1031A00008080808080800001818000000486C24E7
:1031B00012000000000000000000000000000024D9
:1031C00024247F1212127F12121200000000081C29
:1031D0002A2A0A0C1828282A2A1C0808000000227B
:1031E000251515152A585454542200000000000CCF
:1031F0001212120A76252911916E000000060604AB
:10320000030000000000000000000000004020104B
:1032100010080808080808101020400000020408E0
:103220000810101010101008080402000000000020
:1032300008086B1C1C6B0808000000000000000060
:10324000080808087F0808080800000000000000BF
:10325000000000000000000006060403000000005B
:1032600000000000FE000000000000000000000060
:103270000000000000000000060600000000804082
:10328000402020101008080404020200000000186A
:1032900024424242424242422418000000000008F8
:1032A0000E08080808080808083E00000000003C56
:1032B0004242422020100804427E00000000003CF0
:1032C0004242201820404042221C00000000002002
:1032D0003028242422227E20207800000000007E56
:1032E0000202021A26404042221C00000000003860
:1032F0002402021A26424242241800000000007EE6
:103300002222101008080808080800000000003CED
:103310004242422418244242423C0000000000186D
:103320002442424264584040241C00000000000037
:10333000000018180000000018180000000000002D
:103340000000000800000000000808040000004021
:1033500020100804020408102040000000000000B3
:1033600000007F0000007F0000000000000000025D
:103370000408102040201008040200000000003C57
:103380004242464020101000181800000000001CA7
:10339000225A555555552D42221C000000000008A8
:1033A00008181414243C224242E700000000001FC9
:1033B0002222221E22424242221F00000000007CE4
:1033C0004242010101010142221C00000000001FD5
:1033D0002242424242424242221F00000000003F7D
:1033E0004212121E12120242423F00000000003F31
:1033F0004212121E12120202020700000000003CDC
:103400002222010101712122221C0000000000E79C
:10341000424242427E42424242E700000000003EF9
:103420000808080808080808083E00000000007C9A
:1034300010101010101010101010110F0000007755
:1034400022120A0E0A121222227700000000000740
:103450000202020202020202427F00000000007724
:10346000363636362A2A2A2A2A6B0000000000E364
:1034700046464A4A52525262624700000000001C0F
:103480002241414141414141221C00000000003FD6
:10349000424242423E020202020700000000001CBB
:1034A0002241414141414D53321C60000000003F28
:1034B0004242423E1212222242C700000000007C1B
:1034C0004242020418204042423E00000000007FB9
:1034D0004908080808080808081C0000000000E760
:1034E0004242424242424242423C0000000000E767
:1034F0004242222424141418080800000000006B23
:10350000494949495555362222220000000000E76A
:10351000422424181818242442E7000000000077F1
:103520002222141408080808081C00000000007E6D
:103530002120101008040442423F000000780808CF
:1035400008080808080808080808780000000202AF
:10355000040408080810102020204040001E10100D
:10356000101010101010101010101E000038440021
:10357000000000000000000000000000000000004B
:103580000000000000000000000000FF000608002E
:10359000000000000000000000000000000000002B
:1035A0000000003C4278444242FC0000000000035E
:1035B0000202021A26424242261A000000000000BF
:1035C000000000384402020244380000000000609D
:1035D000404040784442424264D80000000000006D
:1035E0000000003C427E0202423C0000000000F06D
:1035F0008808087E08080808083E0000000000004F
:103600000000007C22221C023C42423C00000003DD
:103610000202023A4642424242E700000000000C29
:103620000C00000E08080808083E000000000030EA
:1036300030000038202020202020221E000000031F
:1036400002020272120A1612227700000000000E17
:103650000808080808080808083E000000000000E4
:103660000000007F9292929292B70000000000004A
:103670000000003B4642424242E7000000000000DA
:103680000000003C42424242423C00000000000078
:103690000000001B26424242221E020700000000DA
:1036A0000000007844424242447840E000000000BC
:1036B000000000774C040404041F00000000000018
:1036C0000000007C42023C40423E0000000000003E
:1036D0000008083E08080808083000000000000044
:1036E000000000634242424262DC00000000000031
:1036F000000000E742242414080800000000000035
:10370000000000EB4949555522220000000000004E
:103710000000007624181818246E00000000000035
:10372000000000E7422424141808080700000000E5
:103730000000007E22100808447E000000C0202007
:1037400020202010202020202020C0001010101049
:103750001010101010101010101010100006080893
:103760000808081008080808080806000C32C200FB
:103770000000000000000000000000000001040242
:103780000802E83F000840088F0408050802080501
:103790008808481028101400E27F0000D5E2F80FD6
:1037A00008080808F80F08080808F80F0000FF7F4D
:1037B00080008800881F88009400A200C17FCAC7CB
:1037C0000000000000000000000000000000FF7F7B
:1037D00000000000000000000000000000000000E9
:1037E000D2BB20002000F00F18042602C001B80E42
:1037F00087708000FE3F8000900488088410A2201B
:103800004000CCF50020E4232822282AA12AA22A5D
:10381000A22AA82AA82AA42AA72A8420442144222A
:1038200024281010B2E20014042408240804E07FC5
:1038300000040F04E807880488088808A80898533B
:10384000E85040600040CAD40000E23F0402040295
:10385000C01F00110711E47F04000400C41F4410BE
:1038600054104C10C41F4010D3EF1000100008007B
:10387000F81F04100210F91108110811081108119D
:10388000F81108110010000A0004BEE4000008004E
:1038900008000800080008000800080008000800E8
:1038A000000000000800080000000000A3A1400084
:1038B0008000FE7F0240112120012001080110013B
:1038C0001001FF7F80024004200818100620CAB5AE
:1038D00000041F04100A120A12119220525F3E00C7
:1038E00020222024B824271522112008D47F080084
:1038F000D1E9000000000000FC1F000000000000F3
:1039000000000000000000000000FF7F0000000039
:103910000000B6FE000104020802E83F000840086B
:103920008F040805C41F4410C41F4410D41F4C103A
:1039300044144008C7EB0000E21F0408840500029D
:10394000E03F27222422E43F24222422E43F2422B1
:10395000242A2A10F17FCDA8000804080808E87F6F
:10396000000800084F088808880808080808080A9E
:1039700008041400E27F0000B9FD80008000FC1FF5
:1039800084108410FC1F80008000FE3F8220822073
:10399000FE3F8220800080008000B4AE0000000066
:1039A000FC1F041004100410041004100410041070
:1039B000041004100410FC1F04100000BFDA000003
:1039C000E23F24222422A02F20222722E43F242089
:1039D000A42FA428B428AC2F242020281010B5F739
:1039E0000014042408240804E07F00040F04E807FE
:1039F000880488088808A8089853E8504060004068
:103A0000CAD400043E0422042204223F3E2422247D
:103A100022243E2422242224222272220F218014D6
:103A20004008D6FA0008001FFC0080008000FC1F40
:103A3000800080008000FF7F800080008000800088
:103A4000A0004000CAD68000880888104400FC3FCF
:103A500040002000E01F5010901088080805040264
:103A60000205C0183860B7A2401084108808E83FEB
:103A7000000200020F02E87F08020805080988100A
:103A800048101400E27F0000CBCD10041004FF7F2B
:103A9000100480008000F80F880888088808FF7FDD
:103AA0004001200210040C180360D3A240008000E3
:103AB0008000FF7F0808080810041004200240015D
:103AC00080004001200210040C180360CEC44000A6
:103AD0008000FE7F02400120F80700020001800004
:103AE000FF7F8000800080008000A0004000D7D6CB
:103AF00008020802FC7E1209A11010081008C87FF5
:103B00000C088A080909080908080808080A0804AE
:103B1000B7FB0000000000000000000000000000F3
:103B200000000000000000000C000C000800040071
:103B30000000A3AC0808100810040000FE3F1004A9
:103B4000100410041004FF7F10041004080408047B
:103B500004040204B2A2000820084408840884086F
:103B6000040804080404040404042402140A0C11C4
:103B7000842040402040D2D40000FC1F04100410D8
:103B8000E41324122412241224122412E413041025
:103B90000410FC1F04100000BBD84000400040008F
:103BA000FE3F2000900088008400FC1F8000800001
:103BB000FF7F8000800080008000B3B5080108010D
:103BC000081F88105F08A83F882498248C248B2421
:103BD000E87F080A080A08118A206440BBBB10006D
:103BE000903F0800040012001000C87F0C040A0473
:103BF0000904080408040804080408050802D0D0D1
:103C0000080408040404E47F22041F04883F04001D
:103C10000200BF3F82208020B8208720823F802082
:103C2000BDE10000FC3F04200420FC3F0400040F21
:103C3000F4008400840FF4008400841FFA40824062
:103C4000017FCEB200000000FE3F00000000000037
:103C50000000FC1F00000000000000000000FF7FCB
:103C600000000000C8FD00000000FE3F22222222CA
:103C70002222222222221222123C0A200620022084
:103C8000FE3F02200000CBC40000C41F48104810B3
:103C9000C11F42104210C81F0800E43F27252425F9
:103CA00024252425F47F0000CEC20000E41F281044
:103CB0002810E11F22102210E81F88048404972492
:103CC000A414C40C8404F47F0000CAAA800000017C
:103CD000FC7F44044404FC3F44044404C40704003F
:103CE000F40F240842048203610C1C70B6C88000E3
:103CF00084108810900890048000FF7F200220022A
:103D000020022002104210420842047C0300B9E263
:103D10000000BE3F2222222222222229BE10223F60
:103D20002221222122213E3F0000121122222122A3
:103D3000D5D5800080008000800080008000400198
:103D40004001200220021004100408080410022080
:103D50000140C8CB1002100210020802E83F0C021A
:103D60000C070A07890A880A4812A82F1842080275
:103D700008020802CCE508000800843F240422045D
:103D80001F040804040402043F040204000438046D
:103D90000704C27F0000BAEC080208020802080209
:103DA0007C024406420A42122522282210021002F6
:103DB0000802040202020102CDE240004000FF7F3F
:103DC00020002000F00F10081808F40F1208110846
:103DD000F00F10081008100A1004D3D00000FC0FD8
:103DE0004000400040004000FE3F20012001200133
:103DF0001001100108210421023E0100CEDE000066
:103E000000000000000000000000000000000000B2
:103E10000C000C0000000C000C0000000000A3BA15
:103E20000600892F6930362010201800180018006D
:103E3000180018001800100030206010800F0000DB
:103E4000A1E60000182024102408240424022401E0
:103E50009800400620091009080904090209000613
:103E60000000A3A5100210021002C81F08020C01D6
:103E7000EC7F0A018900C81F08108808080508029D
:103E800008040804B4AB00140024FC7F0404F425E7
:103E90000424F41514191449F255026201418000FA
:103EA00012211248E14FB8D000007C3E4422442247
:103EB0007C3E80048008FF7F400130060C180360C0
:103EC0007C3E442244227C3EC6F780008410881049
:103ED000900890048000FE1F001000100010FC1FCE
:103EE000001000100010FE1F0010B5B108081008E7
:103EF0001004FF7F00007C10441244127C12441214
:103F000044127C124410441054142408C7B0040016
:103F1000E83F002102250229FA2F022172255225AD
:103F200072250223622A1A2D822842200230E3D011
:103F300010021002F03F08020802CC1F4C10CA1FEA
:103F40004910C81F4810C81F48104810F87F0800C3
:103F5000D6B50000000000000000000000000000D6
:103F6000000000000C000C0000000C000C00000021
:103F70000000A3BA0000FE3F42204220E227322286
:103F80004A21822062231E3CC2200221622082211B
:103F9000FE3F0220CDBC400440084010FC07400416
:103FA000400440044004FF3F402040204020402087
:103FB000401440084000CAE90000FC0F0008000857
:103FC000F80F00080008FF7F800084108809A00611
:103FD00090048C18A3604000C2BC20004000800008
:103FE00080008000400140014001200220021004B6
:103FF00010040808040802100160C8EB400020000B
:10400000F80F0808F80F0808F84F08280818FE0FDE
:10401000000A0009C0083808070A0004C9ED1008A2
:1040200010091009081188108C204C20AA5F091172
:104030000811081108118810881048142808B7DDE5
:1040400000000400883F8820802080208F20882066
:10405000883F882008002809181188204040204007
:10406000CAB60020FE20822082248224FE24082456
:104070000824FF248824882488248420842052282B
:104080002110B1F00000FC0F00080008F80F000834
:104090000008FF7F800084108809A00690048C1817
:1040A000A3604000C2BC0000FF01443F44227C22C8
:1040B000442244227C2244144414E4155F0842083C
:1040C000401440224041C8A140002000F80F0808D9
:1040D000F80F0808F84F08280818FE0F000A000912
:1040E000C0083808070A0004C9ED100810091009B3
:1040F000081188108C204C20AA5F091108110811A2
:1041000008118810881048142808B7DD8000800046
:1041100080008000FC1F84108410841084108410A0
:10412000FC1F84108000800080008000D6D0100228
:104130001004D07F080008008C3F0C000A00893F63
:1041400008000800883F88208820883F8820D0C544
:1041500080004000F80F0808F80F0808F80F08085A
:10416000F80F08088000102112491248E10F0000E2
:10417000CFA210021004D07F080008008C3F0C0072
:104180000A00893F08000800883F88208820883F6F
:104190008820D0C580004000F80F0808F80F0808F4
:1041A000F80F0808F80F080880001021124912487B
:1041B000E10F0000CFA2000A00120002FC7F0402FF
:1041C000040204227C224422441444144448544CE3
:1041D000225202618140B3C90002000200027F0244
:1041E000883F082208220822082208210821782175
:1041F0008F20822040142008B9A60000FC0F000880
:104200000008F80F00080008FF7F8000841088096C
:10421000A00690048C18A3604000C2BC200040009F
:104220008000800080004001400140012002200207
:10423000100410040808040802100160C8EB2002F2
:104240002002200224222412E40A2406240224024A
:10425000240224022442F4420F42027C0000B4CB28
:1042600000020202E43F0402C01F0002E77F0400D4
:10427000C41F4410C41F4410D41F4C1044144008E1
:10428000C7EB0040FC4304420442FC4B4448444812
:104290004448FC4B4A4A4A4A4A4AC942484140506B
:1042A0004020CBA240002000F80F0808F80F0808B3
:1042B000F84F08280818FE0F000A0009C00838083F
:1042C000070A0004C9ED1008100910090811881028
:1042D0008C204C20AA5F09110811081108118810C0
:1042E000881048142808B7DD40004000C01F400077
:1042F00040004000FF7F4000400040024004400872
:104300004010400040004000BFA800000800080026
:104310000800080008000800080008000800000065
:1043200000000800080000000000A3A10001020234
:10433000F47F0401800880084724E4270412041154
:10434000840854042C0A0411C0203020B8C3000093
:10435000FE3F42204220E22732224A21822062236D
:104360001E3CC220022162208221FE3F0220CDBCE1
:10437000400440084010FC0740044004400440044E
:10438000FF3F402040204020402040144008400093
:10439000CAE90000FE3F0001000180008000C00269
:1043A000A004900888108420822081008000800072
:1043B0008000B2BB20002000FF7F10001000C81F4B
:1043C00008080C040A02E97F080208020802080231
:1043D00088020801B4E6400040002000FF7F100082
:1043E000100208020C02EA3F090208020802080251
:1043F0000802F87F0800D4DA900890089008E83F97
:1044000088088C08FC7F0A00C91F48104810C81F84
:1044100048104810C81F4810BDE80000FF01443F85
:1044200044227C22442244227C2244144414E41575
:104430005F084208401440224041C8A10000040027
:10444000883F8820802080208F208820883F8820F7
:10445000080028091811882040402040CAB60020D2
:10446000FE20822082248224FE2408240824FF24A3
:104470008824882488248420842052282110B1F0A4
:104480000000FC0F4000400040004000FE3F2001C3
:10449000200120011001100108210421023E010029
:1044A000CEDE00020202E43F0402C01F0002E77FEA
:1044B0000400C41F4410C41F4410D41F4C104414E3
:1044C0004008C7EB0000E21F040884050002E03F3B
:1044D00027222422E43F24222422E43F2422242AE7
:1044E0002A10F17FCDA81000903F080004001200B0
:1044F0001000C87F0C040A04090408040804080416
:10450000080408050802D0D000041F04100A120A8B
:1045100012119220525F3E0020222024B824271539
:1045200022112008D47F0800D1E900000400C87FD0
:104530000804000400048F048804883C880488046C
:10454000A80498048804E07F0000D6A40000FE3F81
:104550000001000180008000C002A00490088810C3
:10456000842082208100800080008000B2BB000097
:10457000E21F040884050002E03F27222422E43FD2
:1045800024222422E43F2422242A2A10F17FCDA8C9
:10459000000804080808E87F000800084F08880899
:1045A000880808080808080A08041400E27F0000C8
:1045B000B9FD0000D44500080000002038010000CB
:1045C0006C0100083846000838010020000E000089
:1045D000C80100081301031206044101640B84A200
:1045E0004A040009360102030406070809293E6946
:1045F00042650204060823B63C239D2B328CAA9206
:104600002E310A10FF014C07802909161234567802
:104610009A891001144815C43A68D9536A0B01D01D
:10462000791F39B0B18FA5059E0A882E14AA0702FA
:084630006309BC9944199400D0
:040000050800020DE0
:00000001FF
