:020000040800F2
:10000000380D0020CD010008890F000857090008AD
:10001000850F0008D7020008731B000800000000CD
:10002000000000000000000000000000E1120008D5
:10003000ED060008000000001D100008F513000880
:10004000E7010008E7010008E7010008E7010008F0
:10005000E7010008E7010008E7010008E7010008E0
:10006000E7010008E7010008E7010008E7010008D0
:10007000E7010008E7010008E7010008E7010008C0
:10008000E7010008E7010008E7010008E7010008B0
:10009000E7010008E7010008E7010008E7010008A0
:1000A000E7010008E7010008E7010008E701000890
:1000B000E701000859140008E7010008E7010008FB
:1000C000E7010008E7010008E7010008E701000870
:1000D000E70100086916000895170008351900089F
:1000E000E7010008E7010008E7010008E701000850
:1000F000E7010008E7010008E7010008E701000840
:10010000E7010008E7010008E7010008E70100082F
:10011000E7010008E7010008E7010008E70100081F
:10012000E7010008E7010008E7010008E70100080F
:1001300000F002F800F03AF80AA090E8000C8244BF
:100140008344AAF10107DA4501D100F02FF8AFF29C
:10015000090EBAE80F0013F0010F18BFFB1A43F0A5
:1001600001031847802F0000A02F0000103A24BF81
:1001700078C878C1FAD8520724BF30C830C144BF0C
:1001800004680C607047000000230024002500264E
:10019000103A28BF78C1FBD8520728BF30C148BFEA
:1001A0000B6070471FB51FBD10B510BD00F033F8D0
:1001B0001146FFF7F7FF01F013FE00F051F803B40A
:1001C000FFF7F2FF03BC01F069FD0000094880471A
:1001D00009480047FEE7FEE7FEE7FEE7FEE7FEE729
:1001E000FEE7FEE7FEE7FEE704480549054A064B41
:1001F00070470000F913000831010008380700209B
:10020000380D002038090020380900207047704759
:10021000704770477047754600F02CF8AE460500F1
:100220006946534620F00700854618B020B5FFF711
:10023000DBFFBDE820404FF000064FF000074FF015
:1002400000084FF0000B21F00701AC46ACE8C009F4
:10025000ACE8C009ACE8C009ACE8C0098D467047FD
:1002600010B50446AFF300802046BDE81040FFF70C
:10027000A6BF000000487047D40600202DE9F041D9
:1002800004460D4616461F462A2000F03FFDC4F3E3
:10029000072000F02FFDE0B200F02CFDC6F3072090
:1002A00000F028FDF0B200F025FD2B2000F02EFD1F
:1002B000C5F3072000F01EFDE8B200F01BFDC7F3F8
:1002C000072000F017FDF8B200F014FD2C2000F01C
:1002D0001DFDBDE8F08100BFFEE70000002000BF6B
:1002E00003E00021044A1154401CB0F5487FF8D3C4
:1002F0000021024A11807047C600002044000020FF
:10030000002000BF03E00021044A1154401CFA28D9
:10031000F9D30021024A118070470000E603002053
:1003200046000020002000BF03E00021044A1154D1
:10033000401CFA28F9D30021024A118070470000BE
:10034000E00400204800002010B57748007800281D
:1003500066D076A22821012000F02EFC73A23A215B
:10036000012000F029FC77A001F0C6F979A001F086
:100370006FF97BA22821012000F01EFC4FF47A7057
:1003800001F008FD4FF47A7001F004FD4FF47A702B
:1003900001F000FD4FF47A7001F0FCFC4FF47A702C
:1003A00001F0F8FC4FF47A7001F0F4FCFFF796FFCF
:1003B00000207049087070A001F09EF973A001F050
:1003C00047F95AA22821012000F0F6FB57A23A2152
:1003D000012000F0F1FB71A22821012000F0ECFBCC
:1003E00001F06CFF71480078002819D000204E49B8
:1003F000087001206E4908704CA2282100F0DCFB37
:100400004AA23A21012000F0D7FB6AA2282101204C
:1004100000F0D2FB6CA001F06FF900206E4908706B
:1004200063480078002841D040A23A21012000F022
:10043000C3FB3EA24C21012000F0BEFB67A23A2183
:10044000012000F0B9FB69A001F056F96CA001F0A1
:10045000FFF801F04BFF1E2001F09CFC5348007890
:10046000A8B170A001F048F90020514908702FA2EE
:100470004C21012000F0A0FB6EA23A21012000F0E7
:100480009BFB0120714908700020534908705248B5
:100490000078401C5049087008460078212805DD86
:1004A00000206A49087001201F49087067480078D9
:1004B000002838D066A001F01FF96AA001F0C8F842
:1004C00001F0FCFE19A24C21012000F075FB69A28D
:1004D0004C21012000F070FB6AA001F00DF96DA025
:1004E00001F0B6F801F0EAFE3048007860B1002073
:1004F000394908705549087071A24C21012000F05B
:100500005BFB75A001F0F8F833480078401C3249D5
:10051000087008460078032805DD0120244908708A
:1005200000204A49087010BD7C00002020202020B7
:1005300020202020202020202020202020202020BB
:1005400000000000D6D8C6F4C4A3BFE92E2E2E0D9D
:100550000A00000041542B5253540D0A00000000C1
:1005600052657365742077696669206D6F64652EC6
:100570002E2E000052000020C9E8D6C3B9A4D7F738
:10058000C4A3CABD2E2E2E0D0A00000041542B43D9
:10059000574D4F44453D330D0A00000073657469A3
:1005A0006E67206D6F64652E2E2E2E005D0000207C
:1005B0007D000020736574206D6F64652073756322
:1005C0006365737300000000C9E8D6C3C4A3CABD45
:1005D000B3C9B9A60D0A00007F000020436F6E6EFC
:1005E00065637420574946492E2E2E00C1ACBDD3F9
:1005F000D2D1D6AA576946692E2E2E0D0A000000C8
:1006000041542B43574A41503D22574946495F3197
:100610003030222C223132333435363738220D0A2D
:1006200000000000C1ACBDD377696669B3C9B9A643
:100630000D0A0000436F6E6E65637420576946694A
:100640002073756363657373000000007E000020F3
:10065000C6F4B6AFB6E0C4A3BFE9C1ACBDD32E2E7D
:100660002E0D0A0041542B4349504D55583D310D34
:100670000A000000436F6E6E6563742053657276E6
:100680002E2E2E00C1ACBDD3B7FECEF1C6F72E2E56
:100690002E0D0A0041542B43495053544152543DAE
:1006A000342C22544350222C223139322E31363808
:1006B0002E312E323030222C363030300D0A0000F0
:1006C000436F6E6E65637420536572762073756335
:1006D0006365737300000000C1ACBDD3B7FECEF1FB
:1006E000C6F7B3C9B9A60D0A0000000070470000A4
:1006F00008B5684600F01EF90121182000F0D0FC72
:100700004FF40040ADF8000003208DF802001020E7
:100710008DF803006946194800F034F84FF4007072
:10072000ADF8000003208DF8020010208DF80300C2
:100730006946134800F026F84FF40071104800F0A5
:10074000F7F84FF40050ADF8000003208DF80200D8
:1007500010208DF803006946084800F013F84FF4A4
:100760008040ADF8000003208DF8020010208DF8C5
:1007700003006946014800F005F808BD001001407B
:10078000000C01402DE9F041024600250026002022
:1007900000230024002791F803C00CF00F0591F806
:1007A00003C00CF0100CBCF1000F03D091F802C094
:1007B0004CEA050591F800C0BCF1000F31D0146877
:1007C00000202BE04FF0010C0CFA00F3B1F800C050
:1007D0000CEA03069E4220D183004FF00F0C0CFA66
:1007E00003F7BC4305FA03FC4CEA040491F803C088
:1007F000BCF1280F06D14FF0010C0CFA00FCC2F836
:1008000014C00AE091F803C0BCF1480F05D14FF0C5
:10081000010C0CFA00FCC2F810C0401C0828D1D30F
:100820001460B1F800C0BCF1FF0F34DD5468002043
:100830002EE000F1080C4FF0010808FA0CF3B1F8B3
:1008400000C00CEA03069E4221D183004FF00F0C3A
:100850000CFA03F7BC4305FA03FC4CEA040491F8D4
:1008600003C0BCF1280F05D100F1080C08FA0CF800
:10087000C2F8148091F803C0BCF1480F07D100F111
:10088000080C4FF0010808FA0CF8C2F81080401C60
:100890000828CED35460BDE8F0810000F0B50A46C8
:1008A000002300240021002500F00046B6F1004F8F
:1008B00002D11D4EF16901E01B4E7168C0F3034582
:1008C00083B200F44016B6F5401F08D121F07061E4
:1008D000154E766826F07066134F7E6012E000F4C5
:1008E0008016B6F5801F06D1032606FA05F4A1434B
:1008F00041F0706106E0460D360103FA06F6B14399
:1009000041F0706122B1460D360103FA06F631431B
:1009100000F00046B6F1004F02D1034EF16101E054
:10092000014E7160F0BD0000000001404161704760
:10093000016170474FF6FF7101800221817004212F
:10094000C17070470246002100E0491C505C00283D
:10095000FBD1C8B2704700BFFEE770B50646EF2373
:1009600040F23F1200210846FFF788FC002408E00F
:10097000002503E0304600F0ADF96D1CF02DF9D3F1
:10098000641CB4F5A07FF3D370BD2DE9FF4F85B093
:1009900081468A460020049003900798A0EB090541
:1009A0000898A0EB0A06CDF80890CDF804A0002D19
:1009B00001DD012705E00DB9002702E04FF0FF3708
:1009C0006D42002E02DD4FF0010806E016B94FF02F
:1009D000000802E04FF0FF387642B54201DD2C46B8
:1009E00000E034464FF0000B1DE0DDE9011000F09F
:1009F00021F8049828440490039830440390049804
:100A0000A04205DD0498001B04900298384402902F
:100A10000398A04205DD0398001B03900198404411
:100A200001900BF1010B601C8345DED909B0BDE8D4
:100A3000F08F000070B504460D462B46224629462D
:100A40002046FFF71BFC0248006800F043F970BD28
:100A5000780000202DE9F04104460D4616461F4659
:100A60002B46324629462046FFF78FFF3B4622465B
:100A700029462046FFF789FF3B4632463946204645
:100A8000FFF783FF3B46324629463046FFF77DFF9E
:100A9000BDE8F0812DE9F04704460D4616461F4695
:100AA000DDF820A03B46324629462046FFF7E6FB0C
:100AB000A8460AE0A14604E0504600F00BF909F10F
:100AC0000109B145F8D908F10108B845F2D9BDE8E6
:100AD000F08700002DE9F84F05460F4616469A4666
:100AE000AB46324800680090B5F5987F01D8E02FFA
:100AF00001D9BDE8F88FA6F12000C6B207F10F03B7
:100B0000EA1D39462846FFF7B9FBBAF1000F29D193
:100B1000002424E004EB0610254911F800904FF062
:100B2000000815E009F0010018B12049009808609C
:100B300003E0204800681D4908601C48006800F078
:100B4000C9F84FEA69096D1C08F1010000F0FF08BF
:100B5000B8F1080FE6DB5D467F1C601CC4B2102CA8
:100B6000D8DB1EE000241AE004EB0610104911F84F
:100B700000904FF000080DE009F0010020B1391994
:100B800005EB0800FFF756FF4FEA690908F101007D
:100B900000F0FF08B8F1080FEEDB601CC4B2102CA7
:100BA000E2DB02490098086000BFA2E7780000205D
:100BB0001C2300087400002070B505460E4614463C
:100BC00015E0B5F5987F01D900251036E02E06D93D
:100BD0000020054606464FF47840FFF7BEFE227817
:100BE000002331462846FFF775FF0835641C20783E
:100BF0000028E6D170BD2DE9F04106460F461446A7
:100C0000002508E006EB05102246394600F008F8FA
:100C1000A41C681CC5B220780028F3D1BDE8F0817F
:100C20002DE9F84F81468A4615460AF10F0309F16E
:100C30000F0251464846FFF721FB4FF03B0B2020A7
:100C4000009000243BE004EB04101F4901EB40003E
:100C500090F820002978884230D104EB04101A491A
:100C600001EB400090F821006978884226D104EB1E
:100C70000410154901EB400600271BE04FF0000867
:100C800012E03078012101FA08F1084020B10F4844
:100C9000006800F01FF803E00D48006800F01AF843
:100CA00008F1010000F0FF08B8F1080FE9DB761C3D
:100CB000781CC7B200988742E0D302E0641C5C4510
:100CC000C1D300BFBDE8F88F0C29000878000020D0
:100CD0007400002010B5044601210548FFF728FEE6
:100CE000C4F3072000F01EF8E0B200F01BF810BDBE
:100CF000000C014010B5044601210348FFF718FE1F
:100D0000204600F00FF810BD000C014010B504465D
:100D100001210348FFF70AFE204600F003F810BD4A
:100D2000000C014010B50446204600F077FA10BDD3
:100D300008B50121082000F0B3F941F20300ADF835
:100D4000000010208DF8030003208DF80200694692
:100D50008B48FFF717FD4FF203018948FFF7E8FDC5
:100D600000F018FA02218648FFF7E0FD142001F098
:100D700011F802218248FFF7DBFD142001F00AF888
:100D80004FF480517E48FFF7D3FDCF20FFF7BEFF21
:100D90000020FFF7AFFFD920FFF7ACFF3020FFF7AF
:100DA000A9FFED20FFF7B2FF6420FFF7A3FF0320A8
:100DB000FFF7A0FF1220FFF79DFF8120FFF79AFFAA
:100DC000E820FFF7A3FF8520FFF794FF1020FFF72F
:100DD00091FF7820FFF78EFFCB20FFF797FF392098
:100DE000FFF788FF2C20FFF785FF0020FFF782FF29
:100DF0003420FFF77FFF0220FFF77CFFF720FFF78B
:100E000085FF2020FFF776FFEA20FFF77FFF002015
:100E1000FFF770FF0020FFF76DFFC020FFF776FFA0
:100E20002120FFF767FFC120FFF770FF1220FFF7B7
:100E300061FFC520FFF76AFF3220FFF75BFF3C2010
:100E4000FFF758FFC720FFF761FFC120FFF752FFF0
:100E50003620FFF75BFFB820FFF74CFF3A20FFF783
:100E600055FF5520FFF746FFB120FFF74FFF002049
:100E7000FFF740FF1820FFF73DFFB620FFF746FFC2
:100E80000A20FFF737FFA220FFF734FFF220FFF719
:100E90003DFF0020FFF72EFF2620FFF737FF012040
:100EA000FFF728FFE020FFF731FF0F20FFF722FFB9
:100EB0002020FFF71FFF1E20FFF71CFF0920FFF770
:100EC00019FF1220FFF716FF0B20FFF713FF50202A
:100ED000FFF710FFBA20FFF70DFF4420FFF70AFFCE
:100EE0000920FFF707FF1420FFF704FF0520FFF795
:100EF00001FF2320FFF7FEFE2120FFF7FBFE00206D
:100F0000FFF7F8FEE120FFF701FF0020FFF7F2FEF8
:100F10001920FFF7EFFE1920FFF7ECFE0020FFF786
:100F2000E9FE1220FFF7E6FE0720FFF7E3FE2D2083
:100F3000FFF7E0FE2820FFF7DDFE3F20FFF7DAFE97
:100F40000220FFF7D7FE0A20FFF7D4FE0820FFF7A4
:100F5000D1FE2520FFF7CEFE2D20FFF7CBFE0F2080
:100F6000FFF7C8FE1120FFF7D1FE782000F012FF36
:100F70002920FFF7CBFE0020FFF7EFFC08BD0000A3
:100F8000000C014000BFFEE7704710B54FF4A060B1
:100F900000F03AF810BD000070B5002100230F22C8
:100FA000C47804B3154C246804F4E064C4F5E06428
:100FB000210AC1F10403CA40447804FA03F1847899
:100FC0001440214309010E4C0678A155047804F021
:100FD0001F050124AC4005786D11AD0005F1E02539
:100FE000C5F8004109E0047804F01F050124AC4075
:100FF000044D0678761145F8264070BD0CED00E0F2
:1010000000E400E080E100E002490143024A11608F
:10101000704700000000FA050CED00E070472DE974
:10102000F04105460B461646002400220021002010
:101030001F4601E07F1C521C97F800C0BCF1000F56
:10104000F8D1002416E000210CE005EB040C1CF89C
:1010500001C013F80180C44501D1012001E0002046
:1010600002E0491C9142F0D300BF914201D1BDE89A
:10107000F081641CA6EB020CA445E4D800BFF6E79F
:1010800029B1064AD2690243044BDA6104E0034AFB
:10109000D2698243014BDA617047000000100240C0
:1010A00029B1064A92690243044B9A6104E0034A5B
:1010B00092698243014B9A61704700000010024020
:1010C00030B500210022002400232D4D6D6805F06D
:1010D0000C0121B1042905D0082923D105E0294DAF
:1010E000056022E0274D05601FE0254D6D6805F481
:1010F0007012234D6D6805F48034022505EB924291
:101100001CB9214D554305600BE01D4D6D6805F47C
:1011100000351DB11C4D5543056002E0194D554386
:10112000056002E0174D056000BF00BF144D6D68FB
:1011300005F0F0010909154D6B5C0568DD4045605F
:101140000F4D6D6805F4E061090A104D6B5C456850
:10115000DD4085600A4D6D6805F46051C90A0B4D8C
:101160006B5C4568DD40C560054D6D6805F4404128
:10117000890B074D6B5CC568B5FBF3F5056130BDA8
:101180000010024000127A0000093D002C000020EF
:101190003C00002000B587B001210820FFF780FF48
:1011A00001218803FFF76CFF4FF46040ADF8180091
:1011B00018208DF81B0003208DF81A0006A9154889
:1011C000FFF7E0FA0020ADF804004FF48270ADF8AC
:1011D00006000020ADF808000220ADF80A0001204A
:1011E000ADF80C004002ADF80E000020ADF8100084
:1011F000ADF812000720ADF8140001A9064800F070
:1012000051F80121044800F033F8FF2000F006F8FF
:1012100007B000BD000C01400038004070B5054625
:10122000002405E0601CC4B2C82C01DD002070BDA4
:1012300002210E4800F028F80028F3D029460B4878
:1012400000F02EF8002405E0601CC4B2C82C01DDBB
:101250000020ECE70121054800F016F80028F3D043
:10126000024800F01AF8C0B2E1E700000038004080
:1012700021B1028842F04002028004E002884FF669
:10128000BF731A40028070470246002013890B404A
:101290000BB1012000E000207047014688897047AB
:1012A0008181704710B50022028802F441520B88F8
:1012B0004C8823438C882343CC8823430C892343C5
:1012C0004C8923438C892343CC8923431A430280CE
:1012D000838B4FF2FF74234083830B8A038210BDFC
:1012E000704710B500F002F810BD00000CB50020EA
:1012F000019000903348006840F480303149086024
:1013000000BF3048006800F4003000900198401C95
:101310000190009818B90198B0F5A06FF1D1294853
:10132000006800F4003010B10120009001E00020BE
:1013300000900098012843D12348006840F0100035
:10134000214908600846006820F00300086008464C
:10135000006840F0020008601A4840681949486077
:101360000846406848600846406840F4806048602D
:101370000846406820F47C1048600846406840F405
:10138000E81048600846006840F08070086000BFC0
:101390000C48006800F000700028F9D00948406847
:1013A00020F00300074948600846406840F002000A
:1013B000486000BF0348406800F00C000828F9D1DD
:1013C0000CBD00000010024000200240042808D19B
:1013D0004FF0E021096941F004014FF0E022116172
:1013E00007E04FF0E021096921F004014FF0E0220D
:1013F000116170477047000010B51348006840F055
:1014000001001149086008464068104908400E492B
:101410004860084600680E4908400B4908600846C5
:10142000006820F4802008600846406820F4FE0030
:1014300048604FF41F008860FFF753FF4FF00060D3
:101440000449086010BD0000001002400000FFF8D1
:10145000FFFFF6FE08ED00E010B50121184800F08E
:101460007AF860B30121164800F066F81548007854
:10147000142805DA13480078401C1249087005E06A
:1014800001201149087000200E4908700F480078AB
:10149000002804DD0D480078401E0C4908700C48F7
:1014A000007820B10A480078401E094908700948B0
:1014B000007820B107480078401E0649087010BD2A
:1014C000000400405A0000205B0000205C00002067
:1014D0004A0000205D0000207FB505460C46012132
:1014E0000220FFF7CDFDADF80850ADF80440002014
:1014F000ADF80A00ADF8060001A90E4800F046F864
:10150000012211460B4800F037F81D208DF800002D
:1015100000208DF8010003208DF8020001208DF8D5
:1015200003006846FFF738FD0121024800F007F884
:101530007FBD000000040040CA430282704721B111
:10154000028842F00102028004E002884FF6FE7336
:101550001A400280704730B5024600200023002464
:10156000158A05EA0103958905EA010413B10CB156
:10157000012000E0002030BD1AB183890B43838134
:1015800002E083898B438381704700000022028838
:101590001D4B98420ED01D4B98420BD0B0F1804F9E
:1015A00008D01B4B984205D01A4B984202D01A4BD8
:1015B000984204D14FF68F731A404B881A43174B49
:1015C000984207D0164B984204D04FF6FF431A407A
:1015D000CB881A4302808B8883850B8803850A4B4E
:1015E00098420BD0094B984208D00E4B984205D038
:1015F0000D4B984202D00D4B984201D10B7A0386D5
:101600000123838270470000002C01400034014018
:101610000004004000080040000C004000100040A2
:1016200000140040004001400044014000480140D7
:1016300010B504462146054800F097FA00BF802106
:10164000024800F0C4F90028F9D010BD003801406C
:1016500010B5044603E02078FFF7EAFF641C207809
:101660000028F8D110BD000010B540F225511648F1
:1016700000F0BAF930B3144800F072FAC4B213485B
:10168000134909884454204600F026F80F481049B1
:101690000988405C4B2809D10D480088401E0B4941
:1016A000085C4F2802D101200A49087008480088C8
:1016B000401C0749088008460088B0F5487F01DBD8
:1016C0000020088010BD000000380140C600002046
:1016D000440000205200002010B50446E1B2054845
:1016E00000F043FA00BF8021024800F070F90028A2
:1016F000F9D010BD0044004010B5044603E0207846
:10170000FFF7EAFF641C20780028F8D110BD000024
:101710001FB5044600F084F800F01EF80094002085
:10172000ADF80400ADF80600ADF80800ADF80C0007
:101730000C20ADF80A006946064800F0A5F9012220
:1017400040F22551034800F079F90121014800F0E9
:1017500032F91FBD0044004008B56846FFF7EAF8BB
:101760000820ADF8000004208DF803006946084801
:10177000FFF708F80420ADF8000003208DF8020000
:1017800018208DF8030069460148FEF7FBFF08BDED
:101790000008014010B540F22551134800F024F92B
:1017A00008B3114800F0DCF9C4B2104810490988A8
:1017B00044540F490988405C0A2809D10C48008824
:1017C000401E0A49085C0D2802D101200949087011
:1017D00007480088401C0649088008460088F92808
:1017E00001DD0020088010BD00440040E603002019
:1017F000460000204D00002008B54FF4E060FFF7E0
:1018000003FC26208DF8000002208DF801008DF8E1
:10181000020001208DF803006846FFF7BDFB08BDFC
:1018200010B5012144F21500FFF73AFC01210248EE
:10183000FFF726FC10BD00000200060010B50446AC
:10184000E1B2054800F091F900BF8021024800F0A4
:10185000BEF80028F9D010BD0048004070B504461D
:101860000D4605E02078FFF7E9FF641C681EC5B24D
:10187000002DF7D170BD00001FB5044600F01EF822
:1018800000940020ADF80400ADF80600ADF80800A3
:10189000ADF80C000C20ADF80A006946064800F0CF
:1018A000F3F8012240F22551034800F0C7F8012166
:1018B000014800F080F81FBD0048004008B56846A8
:1018C000FFF738F84FF40060ADF8000004208DF801
:1018D000030069461548FEF755FF4FF48060ADF8E8
:1018E000000003208DF8020018208DF803006946DF
:1018F0000E48FEF747FF4FF40060ADF800000420EB
:101900008DF8030069460A48FEF73CFF4FF48060FB
:10191000ADF8000003208DF8020018208DF80300B8
:1019200069460348FEF72EFF08BD00000010014085
:10193000000C014010B540F22551104800F054F859
:10194000D0B10E4800F00CF9C4B20D480088C0F3C5
:101950000D000C490C540A480088401C08490880B6
:1019600008460088F92801DD00200880012006498A
:10197000087002200549087010BD000000480040B2
:1019800048000020E00400204E0000204A00002013
:1019900008B54FF4E060FFF737FB27208DF8000013
:1019A00001208DF801008DF802008DF803006846D3
:1019B000FFF7F2FA08BD21B1828942F40052828118
:1019C00004E082894DF6FF731A4082817047024617
:1019D0000020B1F5007F00D100BF13880B400BB190
:1019E000012000E00020704770B50246002400236B
:1019F0000025002040F66A16B14200D100BFC1F3B5
:101A0000421501F01F03012606FA03F3012D02D14E
:101A10009689334006E0022D02D1168A334001E058
:101A2000968A33400C12012606FA04F416883440D4
:101A300013B10CB1012000E0002070BDF0B50346E9
:101A4000002400260025002040F66A17B94200D184
:101A500000BF1846C1F3421401F01F06012707FA20
:101A600006F5012C01D10C3004E0022C01D110301C
:101A700000E014301AB107682F43076002E00768DE
:101A8000AF430760F0BD00002DE9F04786B0054682
:101A90000E460024A24600BFA1460027B08900B12F
:101AA00000BF2F462C8A4CF6FF700440F088044398
:101AB0002C82AC894EF6F3100440B088318908437B
:101AC000718908430443AC81AC8A4FF6FF4004405F
:101AD000B0890443AC8201A8FFF7F2FA1F4887429D
:101AE00002D1DDF810A001E0DDF80CA0A88900F417
:101AF000004040B10AEBCA0000EB0A10316849000F
:101B0000B0FBF1F807E00AEBCA0000EB0A103168FD
:101B10008900B0FBF1F86420B8FBF0F00401200963
:101B2000642101FB1089A88900F4004040B13220F3
:101B300000EBC900B0FBF1F000F00700044308E03F
:101B4000322000EB09106421B0FBF1F000F00F002F
:101B500004432C8106B0BDE8F08700000038014046
:101B600001468888C0F308007047C1F308028280EC
:101B7000704700BFFEE7000010B586B004460121A3
:101B800044F20D00FFF78CFA4FF40070ADF814002A
:101B900003208DF8160018208DF8170005A9284895
:101BA000FEF7F0FD4FF48060ADF8140004208DF8CE
:101BB000170005A92248FEF7E5FD4020ADF8140006
:101BC00003208DF8160018208DF8170005A91D4870
:101BD000FEF7D8FD8020ADF8140004208DF8170022
:101BE00005A91848FEF7CEFD25208DF8000000203D
:101BF0008DF801008DF8020001208DF80300684681
:101C0000FFF7CAF901940020ADF80800ADF80A000A
:101C1000ADF80C00ADF810000C20ADF80E0001A9D5
:101C20000948FFF731FF012240F225510648FFF72E
:101C300005FF01210448FFF7BEFE06B010BD0000FD
:101C400000080140000C01400038014010B5044676
:101C5000FFF7E6FDFFF780FD2046FFF759FDFFF790
:101C6000CBFD10BD10B50446012144F21500FFF76D
:101C700017FA01210748FFF703FA01210648FEF78A
:101C80000DFEFFF71BFE2046FFF7F6FDFFF780FE77
:101C900010BD00000200060010001400014600BF45
:101CA0007047000010B550201A4908704FF40071B9
:101CB0001948FEF73BFE21E04FF4487217A11B487C
:101CC000FFF7ADF950B11A48006808B9012000E0EB
:101CD000002017490860FEF701FB13E04FF40051A4
:101CE0001448FEF723FE322000F054F84FF4005160
:101CF0001048FEF71DFE322000F04CF80548007831
:101D00000028D9D100BF4FF400710348FEF710FE40
:101D100010BD00005C000020000C014048776368A3
:101D20006A303530326F6E5400000000C60000206B
:101D3000100000200010014010B50346002003E011
:101D40000C5C1C54441CE0B29042F9DB10BD000056
:101D500010B56FF00400FFF739FB0A4800680A4924
:101D6000B0FBF1F0094908700846007800EB40012B
:101D7000C1EBC0104FF6FF7101EAC00004490880B2
:101D800010BD00001800002000127A004000002062
:101D9000420000200146114A12884A434FF0E023D6
:101DA0005A6100229A611A46126942F001021A61D0
:101DB00000BF4FF0E022106900F001021AB100F4F8
:101DC0008032002AF5D04FF0E022126922F00102A1
:101DD0004FF0E0231A6100229A6170474200002010
:101DE00008B5FEF785FCFFF7B3FFFEF7A1FF4FF440
:101DF000E130FFF7C1FE4FF4E130FFF727FF4FF46A
:101E00001650FFF72FFFFFF7C0F841F61F4140F2D1
:101E1000E730FFF761FB00208E49087009E00020E1
:101E20008D498C4A127888548A480078401C894928
:101E30000870884800781428F1DB00208749086082
:101E40004FF6E0708649086086A20A215A20FEF704
:101E5000D2FE4FF4FC6082490860F0234FF4A07278
:101E60001E210020FEF7F6FD4FF400518048FEF7DA
:101E70005FFD4FF480417E48FEF75AFD4FF400713C
:101E80007C48FEF755FD7CA294215020FEF7B3FE5E
:101E90004FF4FC60724908607BA2B4218C20FEF7ED
:101EA000AAFED6E0FEF750FA7948007850B3002039
:101EB000774908707748007888B100207549087024
:101EC0004FF400416A48FEF731FD4FF6E070C4233D
:101ED0002422B42100901420FEF7DCFD0EE0012046
:101EE0006C490870C1036248FEF722FD0020C4233C
:101EF0002422B42100901420FEF7CCFD072166486F
:101F0000FFF7ACFC4FF4487264A16848FFF787F80C
:101F100028B1002066490860FEF7E0F90BE04FF4B5
:101F2000487264A16148FFF77AF820B10120604946
:101F30000860FEF7D3F9634800780028B1D0624802
:101F400000780028ADD15F49087060480078CA2841
:101F500060D15E48407820282CD15C488079A0B1BF
:101F600001205B4908700D225AA15E48FFF7E4FE8C
:101F70004FF6E0703A4908605BA2B4218C20FEF76E
:101F80003AFE01205A49086044E000205049087098
:101F90000D2258A15348FFF7CFFE4FF4FC603049A3
:101FA000086039A2B4218C20FEF725FE002050499C
:101FB00008602FE045484078B0282BD14348C078CE
:101FC000A0B10120424908700D2242A14548FFF707
:101FD000B3FE4FF6E0702249086043A2B4218C2082
:101FE000FEF709FE01204249086013E0002038494D
:101FF00008700D223FA13B48FFF79EFE4FF4FC60A6
:102000001749086020A2B4218C20FEF7F4FD0020BF
:10201000374908602648006830B1022239A13148AA
:102020000A30FFF789FE05E0022237A12D480A3069
:10203000FFF782FEFEF776F93448007808B900F021
:1020400067F81B48006820B12948006808B1FFF70D
:1020500029FE27E714000020B200002074000020B1
:1020600078000020C8CBCCE5BAECCDE2000000003F
:1020700000100140000C0140C8CBCCE5BAECCDE229
:10208000B4ABB8D0C6F70000CEDEC8CB000000006D
:102090005B000020070000200000002048776368F4
:1020A0006A303530326F6E5400000000C6000020E8
:1020B00010000020487763686A303530336F6666F9
:1020C000540000004E0000204A000020E0040020E0
:1020D00008000020487764686930353031312020AD
:1020E0005400000080000020D3D0C8CB00000000C6
:1020F0000C0000204877646869303530313020208A
:10210000540000006F6600006F6E00007E0000202B
:1021100010B50E2250A15448FFF70EFE5348FEF7AB
:1021200011FC53490870084600780A280EDA084660
:1021300000780A2190FBF1F201FB120030304A498D
:1021400048730D2088730A20C8731AE04848007845
:10215000642190FBF1F201FB12000A2190FBF1F0E7
:10216000303041494873424800780A2190FBF1F22F
:1021700001FB120030303C4988730D20C8730A20DF
:1021800008743948FFF7B8FA3748FFF761FA1E209C
:10219000384908704FF6E0703749086037A294213B
:1021A000D820FEF709FD23E00020314908700EE039
:1021B00036482F490978405C3E2803D10020344935
:1021C00008700AE02A480078401C2949087028480D
:1021D0000078304909688842EAD300BF2548007872
:1021E00030B900202A49087001202B49087003E00B
:1021F000274800780028D7D100BF2748007850BB77
:102200000120234908701948FFF776FA1748FFF7AD
:102210001FFA22A29421D820FEF7CEFC00F04EF83F
:1022200022A29421D820FEF7C7FCFEF757F8FEF74C
:1022300067F800200E49087009E000200A490C4A9E
:10224000127888540A480078401C094908700848E8
:1022500000781428F1DB10BD41542B4349505345FD
:102260004E443D342C300000B2000020800000209D
:10227000140000205D0000207800002073656E646B
:10228000206C656E2E2E2E2000000000C60000205F
:1022900015000020440000207E00002073656E645D
:1022A00020646174612E2E2E00000000446F6E6564
:1022B00020212020202020200000000010B51E201A
:1022C0000849087003E00748007800B903E00648B1
:1022D00000780028F7D000BF002003490870FDF700
:1022E000FDFF10BD5D0000205200002010B546200B
:1022F0000849087003E00748007800B903E0064881
:1023000000780028F7D000BF002003490870FDF7CF
:10231000E5FF10BD5D00002052000020000000001D
:1023200000000000000000000000000000000008A5
:1023300008080808080800001818000000486C2465
:102340001200000000000000000000000000002457
:1023500024247F1212127F12121200000000081CA7
:102360002A2A0A0C1828282A2A1C080800000022F9
:10237000251515152A585454542200000000000C4D
:102380001212120A76252911916E00000006060429
:1023900003000000000000000000000000402010CA
:1023A000100808080808081010204000000204085F
:1023B000081010101010100808040200000000009F
:1023C00008086B1C1C6B08080000000000000000DF
:1023D000080808087F08080808000000000000003E
:1023E00000000000000000000606040300000000DA
:1023F00000000000FE0000000000000000000000DF
:102400000000000000000000060600000000804000
:1024100040202010100808040402020000000018E8
:102420002442424242424242241800000000000876
:102430000E08080808080808083E00000000003CD4
:102440004242422020100804427E00000000003C6E
:102450004242201820404042221C00000000002080
:102460003028242422227E20207800000000007ED4
:102470000202021A26404042221C000000000038DE
:102480002402021A26424242241800000000007E64
:102490002222101008080808080800000000003C6C
:1024A0004242422418244242423C000000000018EC
:1024B0002442424264584040241C000000000000B6
:1024C00000001818000000001818000000000000AC
:1024D00000000008000000000008080400000040A0
:1024E0002010080402040810204000000000000032
:1024F00000007F0000007F000000000000000002DC
:102500000408102040201008040200000000003CD5
:102510004242464020101000181800000000001C25
:10252000225A555555552D42221C00000000000826
:1025300008181414243C224242E700000000001F47
:102540002222221E22424242221F00000000007C62
:102550004242010101010142221C00000000001F53
:102560002242424242424242221F00000000003FFB
:102570004212121E12120242423F00000000003FAF
:102580004212121E12120202020700000000003C5A
:102590002222010101712122221C0000000000E71B
:1025A000424242427E42424242E700000000003E78
:1025B0000808080808080808083E00000000007C19
:1025C00010101010101010101010110F00000077D4
:1025D00022120A0E0A1212222277000000000007BF
:1025E0000202020202020202427F000000000077A3
:1025F000363636362A2A2A2A2A6B0000000000E3E3
:1026000046464A4A52525262624700000000001C8D
:102610002241414141414141221C00000000003F54
:10262000424242423E020202020700000000001C39
:102630002241414141414D53321C60000000003FA6
:102640004242423E1212222242C700000000007C99
:102650004242020418204042423E00000000007F37
:102660004908080808080808081C0000000000E7DE
:102670004242424242424242423C0000000000E7E5
:102680004242222424141418080800000000006BA1
:10269000494949495555362222220000000000E7E9
:1026A000422424181818242442E700000000007770
:1026B0002222141408080808081C00000000007EEC
:1026C0002120101008040442423F0000007808084E
:1026D000080808080808080808087800000002022E
:1026E000040408080810102020204040001E10108C
:1026F000101010101010101010101E0000384400A0
:1027000000000000000000000000000000000000C9
:102710000000000000000000000000FF00060800AC
:1027200000000000000000000000000000000000A9
:102730000000003C4278444242FC000000000003DC
:102740000202021A26424242261A0000000000003D
:10275000000000384402020244380000000000601B
:10276000404040784442424264D8000000000000EB
:102770000000003C427E0202423C0000000000F0EB
:102780008808087E08080808083E000000000000CD
:102790000000007C22221C023C42423C000000035C
:1027A0000202023A4642424242E700000000000CA8
:1027B0000C00000E08080808083E00000000003069
:1027C00030000038202020202020221E000000039E
:1027D00002020272120A1612227700000000000E96
:1027E0000808080808080808083E00000000000063
:1027F0000000007F9292929292B7000000000000C9
:102800000000003B4642424242E700000000000058
:102810000000003C42424242423C000000000000F6
:102820000000001B26424242221E02070000000058
:102830000000007844424242447840E0000000003A
:10284000000000774C040404041F00000000000096
:102850000000007C42023C40423E000000000000BC
:102860000008083E080808080830000000000000C2
:10287000000000634242424262DC000000000000AF
:10288000000000E7422424140808000000000000B3
:10289000000000EB494955552222000000000000CD
:1028A0000000007624181818246E000000000000B4
:1028B000000000E742242414180808070000000064
:1028C0000000007E22100808447E000000C0202086
:1028D00020202010202020202020C00010101010C8
:1028E0001010101010101010101010100006080812
:1028F0000808081008080808080806000C32C2007A
:1029000000000000000000000000000000010402C0
:102910000802E83F000840088F040805080208057F
:102920008808481028101400E27F0000D5E2F80F54
:1029300008080808F80F08080808F80F0000FF7FCB
:1029400080008800881F88009400A200C17FCAC749
:102950000000000000000000000000000000FF7FF9
:102960000000000000000000000000000000000067
:10297000D2BB20002000F00F18042602C001B80EC0
:1029800087708000FE3F8000900488088410A22099
:102990004000CCF50020E4232822282AA12AA22ADC
:1029A000A22AA82AA82AA42AA72A842044214422A9
:1029B00024281010B2E20014042408240804E07F44
:1029C00000040F04E807880488088808A8089853BA
:1029D000E85040600040CAD40000E23F0402040214
:1029E000C01F00110711E47F04000400C41F44103D
:1029F00054104C10C41F4010D3EF100010000800FA
:102A0000F81F04100210F91108110811081108111B
:102A1000F81108110010000A0004BEE400000800CC
:102A20000800080008000800080008000800080066
:102A3000000000000800080000000000A3A1400002
:102A40008000FE7F024011212001200108011001B9
:102A50001001FF7F80024004200818100620CAB52C
:102A600000041F04100A120A12119220525F3E0045
:102A700020222024B824271522112008D47F080002
:102A8000D1E9000000000000FC1F00000000000071
:102A900000000000000000000000FF7F00000000B8
:102AA0000000B6FE000104020802E83F00084008EA
:102AB0008F040805C41F4410C41F4410D41F4C10B9
:102AC00044144008C7EB0000E21F0408840500021C
:102AD000E03F27222422E43F24222422E43F242230
:102AE000242A2A10F17FCDA8000804080808E87FEE
:102AF000000800084F088808880808080808080A1D
:102B000008041400E27F0000B9FD80008000FC1F73
:102B100084108410FC1F80008000FE3F82208220F1
:102B2000FE3F8220800080008000B4AE00000000E4
:102B3000FC1F0410041004100410041004100410EE
:102B4000041004100410FC1F04100000BFDA000081
:102B5000E23F24222422A02F20222722E43F242007
:102B6000A42FA428B428AC2F242020281010B5F7B7
:102B70000014042408240804E07F00040F04E8077C
:102B8000880488088808A8089853E85040600040E6
:102B9000CAD400043E0422042204223F3E242224FC
:102BA00022243E2422242224222272220F21801455
:102BB0004008D6FA0008001FFC0080008000FC1FBF
:102BC000800080008000FF7F800080008000800007
:102BD000A0004000CAD68000880888104400FC3F4E
:102BE00040002000E01F50109010880808050402E3
:102BF0000205C0183860B7A2401084108808E83F6A
:102C0000000200020F02E87F080208050809881088
:102C100048101400E27F0000CBCD10041004FF7FA9
:102C2000100480008000F80F880888088808FF7F5B
:102C30004001200210040C180360D3A24000800061
:102C40008000FF7F080808081004100420024001DB
:102C500080004001200210040C180360CEC4400024
:102C60008000FE7F02400120F80700020001800082
:102C7000FF7F8000800080008000A0004000D7D649
:102C800008020802FC7E1209A11010081008C87F73
:102C90000C088A080909080908080808080A08042D
:102CA000B7FB000000000000000000000000000072
:102CB00000000000000000000C000C0008000400F0
:102CC0000000A3AC0808100810040000FE3F100428
:102CD000100410041004FF7F1004100408040804FA
:102CE00004040204B2A200082008440884088408EE
:102CF000040804080404040404042402140A0C1143
:102D0000842040402040D2D40000FC1F0410041056
:102D1000E41324122412241224122412E4130410A3
:102D20000410FC1F04100000BBD84000400040000D
:102D3000FE3F2000900088008400FC1F800080007F
:102D4000FF7F8000800080008000B3B5080108018B
:102D5000081F88105F08A83F882498248C248B249F
:102D6000E87F080A080A08118A206440BBBB1000EB
:102D7000903F0800040012001000C87F0C040A04F1
:102D80000904080408040804080408050802D0D04F
:102D9000080408040404E47F22041F04883F04009C
:102DA0000200BF3F82208020B8208720823F802001
:102DB000BDE10000FC3F04200420FC3F0400040FA0
:102DC000F4008400840FF4008400841FFA408240E1
:102DD000017FCEB200000000FE3F000000000000B6
:102DE0000000FC1F00000000000000000000FF7F4A
:102DF00000000000C8FD00000000FE3F2222222249
:102E00002222222222221222123C0A200620022002
:102E1000FE3F02200000CBC40000C41F4810481031
:102E2000C11F42104210C81F0800E43F2725242577
:102E300024252425F47F0000CEC20000E41F2810C2
:102E40002810E11F22102210E81F88048404972410
:102E5000A414C40C8404F47F0000CAAA80000001FA
:102E6000FC7F44044404FC3F44044404C4070400BD
:102E7000F40F240842048203610C1C70B6C8800061
:102E800084108810900890048000FF7F20022002A8
:102E900020022002104210420842047C0300B9E2E2
:102EA0000000BE3F2222222222222229BE10223FDF
:102EB0002221222122213E3F000012112222212222
:102EC000D5D5800080008000800080008000400117
:102ED00040012002200210041004080804100220FF
:102EE0000140C8CB1002100210020802E83F0C0299
:102EF0000C070A07890A880A4812A82F18420802F4
:102F000008020802CCE508000800843F24042204DB
:102F10001F040804040402043F04020400043804EB
:102F20000704C27F0000BAEC080208020802080287
:102F30007C024406420A4212252228221002100274
:102F40000802040202020102CDE240004000FF7FBD
:102F500020002000F00F10081808F40F12081108C4
:102F6000F00F10081008100A1004D3D00000FC0F56
:102F70004000400040004000FE3F200120012001B1
:102F80001001100108210421023E0100CEDE0000E4
:102F90000000000000000000000000000000000031
:102FA0000C000C0000000C000C0000000000A3BA94
:102FB0000600892F693036201020180018001800EC
:102FC000180018001800100030206010800F00005A
:102FD000A1E600001820241024082404240224015F
:102FE0009800400620091009080904090209000692
:102FF0000000A3A5100210021002C81F08020C0155
:10300000EC7F0A018900C81F08108808080508021B
:1030100008040804B4AB00140024FC7F0404F42565
:103020000424F41514191449F25502620141800078
:1030300012211248E14FB8D000007C3E44224422C5
:103040007C3E80048008FF7F400130060C1803603E
:103050007C3E442244227C3EC6F70000FE7F0008EE
:103060000008F80888088808880888088808F80888
:10307000880800080008000A0004BFC988088828DA
:10308000884B680A5A7EAA0A0A09491588148822B8
:103090004822344124104225424A214AC8BC080033
:1030A0000800FC3F0400F20F0100FC0F00080008BC
:1030B0000008000800080050005000600040C6F8FA
:1030C0001002100210020802E83F0C020C070A0767
:1030D000890A880A4812A82F184208020802080222
:1030E000CCE5000004310008000000208000000052
:1030F0006C0100088431000880000020B80C00003A
:1031000088010008CA20FE600101AC000000000038
:1031100000000000000000000001000000A24A04BE
:103120000000000000000000010203040607080977
:10313000000000000102030401020304060708095D
:10314000020406080000000000000000000000006B
:10315000000000000000000000000000000000006F
:103160000000000000000000B63C00009D2B0000A5
:103170008C00000092000000000000000000000031
:04318000010000004A
:0400000508000131BD
:00000001FF
